:10000000F1C5000001C60000FFC50000FDC50000ED
:10001000FBC500000C942333F7C500000C94500F6F
:10002000F3C50000F1C500000C947B270C94073346
:100030000C9415330C945527E7C50000E5C5000066
:100040000C94E132E1C50000DFC50000DDC5000011
:10005000DBC500000C94510FD7C50000D5C50000CA
:10006000D3C50000D1C500005C0C5E0C620C660CB0
:10007000660C680C720C720C740C740C740C740C9E
:10008000740C740C740C740C740C740C740C740C70
:10009000740C740C740C740C740C740C740C740C60
:1000A0006C0C6A0CE62FF72F903009F49395E5B8A5
:1000B000C4B8B6EFB0937A00A5E0A0937B00A8E0A7
:1000C000A093810010928000AFEFA0938500A093D1
:1000D0008400A6E0A093360010928B0010928A0054
:1000E000B3E0AFE3A91B51E0392F33302AF0A05C15
:1000F000BC4F53953350F9CFB0938900A09388003B
:10010000A0917A00A4FFFCCFB6EBB0937A00A2E0F6
:10011000A0936F00A9E0A093810062E0A0E0A0930B
:100120007B00A1E0A09353008895E5B8C4B884FF94
:100130001AC0A8E10000AA95F1F7EF93FF93E7B189
:10014000F8B1A4E0C2FCA2E0C0FCA1E0BF2FBA2B32
:10015000AE2BB8B904B9A7B9E7B9F8B9FF91EF91D7
:100160000BC00C949100ACE100000000AA95F1F7DF
:1001700025B9E5B8000004B9A0918400A0918500DC
:10018000B0918900A395AB1760F7A0917A00A4FF06
:10019000F3CFB6EBB0937A006A9571F7609178006F
:1001A00070917900308186FD630F6193308186FD07
:1001B000731F80FF7193652F4A9579F710926F0036
:1001C00010928100B6E0B0937A0008950002F90120
:1001D000F20118000720080808F80000002060A0BD
:1001E0003FA06020020202FF0202021010101F0056
:1001F0000000050842818989760508C2A191898697
:100200000508000402FF0010100508F87838588827
:10021000091003081C3E7F0D080710FF818181F142
:10022000E1C1FF4040404743410D080110FFFF116D
:10023000080310F1E1C14743410E000820212112BB
:100240002060E0E0E0FEFE0402010001037F7F2168
:10025000C2C4C4C04094840007030102040E080213
:1002600010FEFE7F7F00000000110005202060E0EE
:10027000E0E00201000103C2C4C4C0400703010260
:1002800004010410090A0C4E6F742063616C6962EA
:1002900072617465642120466F72FF63616C6962EC
:1002A000726174696F6E20636C616D702074686533
:1002B0002033FF70696E7320746F676574686572B0
:1002C00020616E6420737461727420776974682091
:1002D000746865FF6B65792E2041636B6E6F776C78
:1002E00065646765207468652073656C662D746548
:1002F0007374207769746820746865206B65792051
:1003000077697468696EFF32732E20446973636F76
:100310006E6E6563742070696E73206166746572B9
:1003200020746865FF6D657373616765202269736A
:100330006F6C617465FF50726F6265212220697372
:100340002073686F776E2E20536F667477617265C5
:1003500020616E6420646F63756D656E746174698D
:100360006F6E206973206174206769746875622EEE
:10037000636F6D2FFE6D696B726F636F6E74726F5A
:100380006C6C6572FE2D6E65742F7472616E73698C
:1003900073746F72FE7465737465722000B903879D
:1003A0000358032E030703E402C302A402880200D9
:1003B00000140029003E005300690080009700AE41
:1003C00000C600DF00F80012012D0149016501821D
:1003D00001A001BE01DE01FF012102440268028E7C
:1003E00002B502DE020903350364039403C803FE69
:1003F0000337047304B404F90443059305EA05497B
:1004000006B3062907AE074808FF08DE09FD0A9370
:100410000C480F991B0000000000000000000000C5
:1004200000000000001E2121211200807F0000003A
:100430007E4A4A4A34000000000000FC40201008B8
:10044000040201000000010101010101010101019B
:100450000101017F0488D0E0F0F8000000000000F6
:10046000000000000000000000000000FC949484E4
:1004700000000102FC00000000000000000000007D
:10048000001E21212112E0C0804020100F0000003A
:10049000C020202040000000FC00009E9E040303BA
:1004A00003030200000020202324252523202020F0
:1004B0003F00007B7B2142840480C00000000000DC
:1004C000000000000000000000FC9494840004067A
:1004D00007070708F000000000000000000000000F
:1004E0000000803F2121120C00000000FF000000EE
:1004F000F0084848C80000FE0000E7818181C1E1A2
:10050000F181818101002020202121212020203F14
:100510000000F340404041434740407FC00000009E
:100520000000000000000000000000489494946463
:1005300000000000FF0000000000000000000000BC
:1005400000000000003F2121120C0000FF0000000D
:10055000F0084848D0000000000000FEFE0404043B
:1005600004040404070008080809090908087F3E74
:100570001C08087F7F20202020202020E000000091
:1005800000000000000000000000000000489494FB
:1005900094640000FF000000000000000000000064
:1005A000FF003C0A090A3C0022312929260000826A
:1005B000868E9EBEFEFEBEDEEFF6FAFEFEFAF2E28A
:1005C000C28200000008080804027984A4A468001C
:1005D000FF0000000000000000000000000000001C
:1005E0000000000000000000FF0000F0282428F0B8
:1005F000001008FC000000000000000000000000E7
:100600003C0A090A3C00FF00000000000000000056
:10061000000000000000000000040C1C3C7CFF7C7B
:100620003C1C0C040000000000009EA1A9A99A80B7
:100630004323130B0703FF0303030303030000001B
:100640000000000000000000788484844800FF005F
:100650000000000000000000F00804E21109090990
:100660000909090909091121C2040810E000000064
:1006700001020404070000000000804020108844AC
:100680002310080403000000000000000000000028
:10069000FE0100FC0201000000000000000000005C
:1006A00000000000000000007949497900000000C6
:1006B000000000000000FC021212EC040300010123
:1006C00000F008080808F00407000007040000F024
:1006D0000000F0040203020103000C12120C0000DF
:1006E000000000000000000000000000000000000A
:1006F0000000003CFE3C000000000B000000160E55
:1007000000160E00000000000008FE0808FE0801A8
:100710000701010701001028FC88100001020702F0
:10072000010E8A4E20100C03000007050788542292
:100730005488C00304040201060000160E000000E5
:100740000000000000F804020000000102040000A4
:10075000000000000204F80000000402014850E01C
:10076000E05048020100000102004040F04040001B
:100770000000010000000000000000000005030070
:1007800000404040404040000000000000000000E9
:100790000000000000060600000080402010080154
:1007A0000000000000F884422214F8010204040250
:1007B00001000804FE000000000007000018048289
:1007C0004224180605040404040C0202225488037F
:1007D0000404040201C0B08C82FE80000000000707
:1007E000003E22121222C2010204040201F8241265
:1007F0001222C401020404020102824222120E00EB
:1008000007000000008854222254880102040402D8
:10081000013844828244F8020404040201000030DA
:10082000300000000006060000000030300000002C
:1008300000050300000040A01008040000000102B1
:1008400004202020202020010101010101000408D2
:1008500010A0400004020100000C02C222120C0091
:100860000006000000F804629294F80102040404F7
:1008700002F844424244F8070000000007FE22222A
:100880002222DC070404040403FC020202020C031B
:100890000404040403FE02020202FC07040404042C
:1008A00003FE2222222202070404040404FE222260
:1008B000220202070000000000FC02024242CC03B8
:1008C0000404040207FE20202020FE070000000090
:1008D00007000002FE020000000407040000000000
:1008E00000FE00020404040300FE609008040207F6
:1008F0000000010204FE00000000000704040404DC
:1009000004FE0C30300CFE070000000007FE18202B
:100910004080FE070000000107FC02020202FC0307
:100920000404040403FE424242423C07000000006B
:1009300000FC02020202FC030404050205FE42C29E
:1009400042423C0700000102040C122222428C03A6
:100950000404040403000202FE0202000000070077
:1009600000FE00000000FE030404040403007EC037
:1009700000C07E00000107010000FE80F880FE003C
:100980000007010700069860609806060100000154
:1009900006001E20C0201E00000007000002824248
:1009A00022120E07040404040400FE0202020000E6
:1009B0000704040400102040800000000000000133
:1009C0000200020202FE0000040404070000080402
:1009D0000204080000000000000000000000000405
:1009E00004040404040002040800000000000000E5
:1009F000008048484848F0030404040207FE100839
:100A00000808F0070404040403F008080808300389
:100A10000404040402E010101020FE030404040483
:100A200007F0888888887003040404040410FC120A
:100A30000202040007000000007088888888F00225
:100A40000404040403FE40201010E007000000002E
:100A500007000008FA000000000007000000000086
:100A600000FA00040808080700FE40A0100800076C
:100A70000000010204000002FE0000000000030468
:100A80000000F808F008F0000700070007F8201041
:100A90000808F0070000000007F008080808F00345
:100AA0000404040403F890080808F0070001010199
:100AB00000F008080890F8000101010007F8201074
:100AC00008083007000000000030484888881002FD
:100AD00004040404030010FE1010000000030404CA
:100AE00002F800000000F80304040402070078C0C4
:100AF00000C07800000107010000F800C000F80005
:100B000003040304031860808060180601000001DC
:100B1000067880808040F8020404040403080888F2
:100B20004828180605040404040040A01C02020022
:100B30000000070808000000FE00000000000F0091
:100B4000000002021CA04000080807000004020187
:100B5000020402000000000000E010080408100178
:100B6000010101010140F0101010F04000010101ED
:100B7000010100FCF8F0E040FCFC07030100000765
:100B800007FCFC40E0F0F8FC070700000103074009
:100B9000FCFC00FCFC4000070700070700F8080801
:100BA00008080808030202020202020808080808EE
:100BB00008F8020202020202034040404040404066
:100BC0000000000000000040408000C020C0000085
:100BD000010202010200C020C000804002020102A6
:100BE0000201000011241FBECFEFD8E0DEBFCDBF51
:100BF00021E0A0E0B1E001C01D92AE3BB207E1F7F9
:100C00000E94FF130C940D3CFBC95A98529A15BED2
:100C10005D98559A80FF03C05198599A02C059981F
:100C2000519A48D1661F1AD0661F18D0661F16D079
:100C3000661F14D0661F12D0661F10D0661F0ED01C
:100C4000661F0CD037D15A98529A55985D9A90E108
:100C500095BF5A98529A5B98539A08955A98529A07
:100C600018F453985B9A02C05B98539A52985A9A18
:100C700021C1089597FF09C08F939F938DE2C9D535
:100C80009F918F91909581959F4F6BE171E04AE024
:100C900050E00E94AC3B32C60895ECDF01C0EADFB1
:100CA00080E2B7C58DE2B5C58DE3B3C5EF92FF9283
:100CB0000F931F93182F062FF42E82E691E029D66A
:100CC000EE24E0913601F09137018685E81611F4A3
:100CD000812F09C08485E81611F4802F04C0858512
:100CE000E81611F48F2D95D5E3948E2D833049F7B6
:100CF0001F910F91FF90EF900895EF92FF920F9345
:100D00001F93182F062FF42E80E0A4D4C9DF88E6A5
:100D100091E0FFD54F2D602F812FC8DF1F910F91DC
:100D2000FF90EF900895682F80E092E0662309F429
:100D300091E0623009F481E008950F93082FE6EA0C
:100D4000F1E0880F880FE80FF11D608171818281C9
:100D50009381643671058105910568F4209119012C
:100D600027FD09C0802FDFDF692F0BD26EEF23E054
:100D70004DE1FDD604C04FEF04E02DE10FD690DF2A
:100D80000F910895863058F4E5E9F1E0E80FF11D80
:100D9000E80FF11D8081918163E0F4D681CF089541
:100DA0001F93182F80916F01882319F079DF80E05D
:100DB00030D517D489E591E0ACD5812F82958F701D
:100DC000E1DF812F8F70DEDF1F9108958091060192
:100DD00082958F7019D08091060183701CD080910C
:100DE0000601DECF0895E9E8F1E0E80FF11D08956E
:100DF000CF93F9DF9081C681C91710F405D001C0E7
:100E000013D04EDFCF910895EEDF8F93808173D59D
:100E10008F9101C008958F9387E291E07AD58F91E9
:100E2000E2DF868168C50895DEDF8F93868163D512
:100E30008F9101C008958F9383E291E06AD58F91DD
:100E4000D2DF808158C508958F932F932AE0809533
:100E50003B9A089410F4439802C0439A000020D0B3
:100E600027D086952A95B1F72F918F91089503D0B9
:100E700002D001D000D000D003D002D001D000D0E9
:100E800000D003D002D001D000D000D0A89503D06C
:100E900002D001D000D000D003D002D001D000D0C9
:100EA00000D003D002D001D000D000D003D002D0B7
:100EB00001D000D00000089590E0893C28F0885CC3
:100EC00048EC849FC0011124009709F408952091F3
:100ED0008100277019F0DADF0197F6CF8130910594
:100EE00019F002973EE303C037E180E090E02091E3
:100EF000B200230F2093B30042E04093700027E03C
:100F000023BF889526E023BF10927000A895DCCF00
:100F10008F9384E0D1DF07C08F9382E0CDDF03C0E1
:100F20008F9381E0C9DF8F911F93182F1064109366
:100F30007C00E12FE07880912601E81759F0E093DA
:100F40002601AEDF8EE980937A0083E083BF889527
:100F500082E083BF20E030E0A901E0E01FC08EE91D
:100F600080937A0083E083BF889582E083BF60919D
:100F7000780070917900260F371F411D511DE43014
:100F800061F480912801803041F084E020303807FE
:100F900020F417FD02C01068CACFEF5F80912501D1
:100FA000E817E8F26091290170912A0117FF04C047
:100FB000609127017091280180E090E00E941C3A26
:100FC0002FEF33E040E050E00E945E3AB901CA01E1
:100FD0002091250130E040E050E00E945E3AC901D6
:100FE0001F9108959B01281B390B50F0C9010895EA
:100FF000BC018091290190912A016817790718F4A2
:10100000861B970B089580E090E0089583E493E0B9
:101010000E94DF3B382F84E493E00E94DF3B209165
:101020002D01230F30912E01381F20930F01309393
:10103000100183E0283E380720F0C901885E934004
:1010400002C080E090E062E370E00E94373A6830CE
:1010500008F067E0EDE9F3E0E60FF11DE60FF11DA2
:10106000459155912591359162E3681B421B530BC5
:10107000649FC001659F900D1124499662E370E062
:101080000E94373A620F731F70937201609371016F
:1010900085E493E00E94DF3B992787FD909560915E
:1010A0002D0170912E01860F971F90932801809338
:1010B000270190936E0180936D0108950F9221E0B6
:1010C0008C32920710F48CE291E08C52914069E1ED
:1010D00070E00E94373A99E16B3210F0982F6BE282
:1010E000981BE0ECF2E0E60FF11DE60FF11D9F9377
:1010F000CF010E94DF3B482F3196CF010E94DF3B9A
:10110000582F3196CF010E94DF3B282F3196CF0117
:101110000E94DF3B382F6F91421B530B649FC0012D
:10112000659F900D11240C9669E170E00E94373A9A
:10113000620F731FCB010F900895CF93DF9324E1CB
:1011400030E0B9010E94373ADC01EFEAF3E0E60F44
:10115000F71FE60FF71FC591D591459155914C1B8F
:101160005D0B4A9FC0014B9F900D5A9F900D11241B
:10117000B9010E94373A6C0F7D1FCB01DF91CF91EF
:101180000895AEE1B0E0E7ECF8E00C944C3B662E3D
:10119000B82E860F898320911301283059F52091AC
:1011A0007701309178014091790150917A0157FD92
:1011B00015C01091860109C0CA01B9012AE0312D7C
:1011C000412D512D0E945E3A1F5F173FACF391F401
:1011D000243160E036074105510518F48FEF9FEF89
:1011E00042C1173F39F480E028178DE738074105E1
:1011F000410510F020E03DE72C8B3D8B26EDA22E23
:10120000E4E8F2E0E60DF11D859188608E87E4E860
:10121000F2E0EB0DF11D859188608F87E1E8F2E047
:10122000E60DF11D7590E1E8F2E0EB0DF11DC590C2
:1012300090EC692AB92A81E0E82EF12C012D112DBC
:101240008E831F82188619861A861B861C861D8629
:10125000188E198E1B8E1A8E0E94BC2388E088B9C6
:1012600060927C001DDE3F8537B975B874B852E0D6
:101270005A95F1F70000000014B815B8DD243E853A
:1012800037B975B874B860927C00A895A0927A00BE
:1012900080917A0086FDFCCF209078003090790014
:1012A000B0927C004C2DE3D02091780030917900F1
:1012B000288B398B3F8537B9C5B8C4B8A895B0928B
:1012C0007C00A0927A0080917A0086FDFCCF60912C
:1012D00078007091790060927C00472DC8D04091D1
:1012E00078005091790014B8CB01820D931DE80E5F
:1012F000F91E011D111DEA82FB820C831D83888962
:101300009989840F951F2E813F8168857985280FE3
:10131000391F611D711D2E833F836887798722E302
:101320002417150648F075B874B8C4DD14B815B89C
:10133000888D8395888F07C0483E73E0570718F063
:101340008A8D83958A8F888999892817190658F07C
:101350003E8537B9C5B8C4B8ADDD14B815B8898DA8
:101360008395898F07C0883E73E0970718F08B8DAF
:1013700083958B8FD3945D2D5F3F49F05F3731F4B8
:101380005C2D550FC50E572D550F750E78CF40901B
:10139000320150903301440C551C9201E4E0240DBD
:1013A000351DEA95E1F72901570168016E807F80BC
:1013B00088849984209113012830C1F46C897D8937
:1013C000812D912D65507040804090409B01AC0173
:1013D0000E941C3A9B01AC0160E779E786E190E04E
:1013E0000E945E3A621A730A840A950AA614B70428
:1013F000C804D90428F46A187B088C089D0803C027
:10140000662477244301B20180E090E09301A401B7
:101410000E941C3A9501A6010E945E3A8BE193E07E
:101420007981870F911D0E94DF3B682EC90160E121
:1014300070E00E94373A260F371FC9016816190657
:1014400018F4861991090FC08C5E9F4F861591057F
:1014500040F48C899D89843981E1980710F00E94BD
:10146000A413812D912D6E96E2E10C94683B1092AD
:1014700081001092800010926F0010928B001092E9
:101480008A0057E056BB5FEF50938500509384006D
:1014900055E050937B0056EB50937A0051E0509307
:1014A000810058E25A95F1F7000045B944B955E07A
:1014B0005A95F1F7000014B815B810928100809188
:1014C0007A0084FFFCCF80937A000895CF93C82FD1
:1014D0001C161CF4E5DBC150FBCFCF91089560933F
:1014E00035018093030186958093A50187E0689F6D
:1014F000602D11246093040108958091350180933B
:1015000001018091A501809302010895809102015B
:1015100060910101880FE3CF0895682F80E075CBBB
:1015200008958EEAFADF85EAF8CF08958DE08CDC25
:101530008AE08ACC08951092A50160E080E0CFDFB8
:10154000F5CF0895CF93DF93C0E080E1E6DF80E040
:10155000E4DF8C2F806BE1DFD4E860E081E055DBD5
:10156000D150D9F7CF5FC83081F7E5DFDF91CF9158
:10157000089558985A985B985D98509A529A539A41
:10158000559A93DC15BE55985D9A5998519A84E105
:1015900093DC15BE5098589A84E18EDC8EEABDDF4C
:1015A00082EEBBDF82EAB9DF80EAB7DF80ECB5DF2D
:1015B0008FE2B3DF84E2B1DF81E8AFDF8AE193E05D
:1015C0000E94DF3B8F73A9DF80E4A7DF84EAA5DFF9
:1015D00086EAA3DFB7DF8FEAA0DF60E080E07FCF9D
:1015E000089581E08093A50160E082E078DF9ECFDE
:1015F000089582E08093A50160E084E070DF96CFDB
:10160000089583E08093A50160E086E068DF8ECFD7
:1016100008959091350182E1891B58CF0895CF93A9
:10162000C82FF7DF8091A5018F5F8093A5018430DB
:1016300038F083E08093A50181E08093380102C0F7
:10164000109238018091A5016C2F880F48DF6EDF62
:10165000CF910895E4DF01D48091A501833008F093
:1016600065CF089568DFD5DF66CF0895BADFD1DF93
:10167000B8CF0895582F28E030E090E841E080E0AE
:10168000652F642309F0892B440F96952150310969
:10169000B9F70895A0E0B0E0E0E5FBE00C944E3B24
:1016A000EC0110E0C801860F911D813891050CF006
:1016B00066C0F12CE40EF11C31E4E316F1040CF0E9
:1016C0005EC0742E76947694769481E0E81AF108E0
:1016D00093E0F594E7949A95E1F7E22FE2706E2E8D
:1016E00021FF0DC0C701992787199109809FA0018B
:1016F000819F500D909F500D1124C40FD51FF7E00E
:10170000FE1510F487E0E82E862F82958F70806199
:10171000482E6F70F62E2170522EE71458F1872D47
:10172000806BFBDE842DF9DE8F2DF7DE5E01A00ECF
:10173000B11EC5014E01C817D907A1F09C01215067
:1017400031096901552011F0F90101C0F4018491BA
:10175000611090DF682F81E058DAC601FFEF8F1A21
:101760009F0AE9CF662019F05E01A01AB10A7394AE
:10177000E501D3CF809103018F70806BCEDECDB7B2
:10178000DEB7E0E10C946A3BEF920F93482F282FCD
:101790002F7380E6289F90011124C9018B5E9B4F17
:1017A00046FF02C028E001C028E42093050147FF5E
:1017B00003C01092000108C020E220930001209194
:1017C00005012D5E2093050120E2E22E08E120E0D4
:1017D00040910001609105015DDF0F91EF90089548
:1017E000EF920F93262FFC0164913196449131962C
:1017F00004913196E49030910001430F309105013E
:10180000630F049647DF0F91EF90089560E0E8CFF3
:101810000895EF920F93CF93C82F809135018F5F7A
:101820008093350140910301440F440F440FCC30A5
:1018300088F42EE0C29FC001112430E1E32E07E0BE
:1018400020E0609104018B59944F24DF80910401C2
:10185000895F25C02C2F30E02C5131095CE0529F6C
:10186000C001539F900D112420E1E22E06E020E0FC
:10187000609104018B54994F0DDF609104016A5F00
:101880006093040140910301440F440F440F01E0B1
:1018900020E085EE96E0FEDE809104018F5F80936C
:1018A00004018C2F90E0FC013197EE31F105E0F45A
:1018B000EC5CFF4F0C949C3A8EE305C08CE7C4DAD5
:1018C0008CE313C08CE7C0DA8CE70FC082E50DC053
:1018D0008DE20BC085E709C08FE4B6DA88E6B4DA9A
:1018E0008DE603C08CE401C08C2FAEDAA895CF91B1
:1018F0000F91EF9008958F5C8CCF0895CF93DF9375
:10190000EC018991882311F084DFFBCFDF91CF9127
:101910000895CF93DF93EC01CE010E94DF3B882333
:1019200019F077DF2196F8CFDF91CF910895EF92EC
:101930000F93FC0104913196E4900296ABDE0F9177
:10194000EF9008950F9380E891E0E3DF40918501E7
:101950004D3F64F460917301709174018091750141
:101960009091760103E026E419D002C08FE351DFA5
:101970000F910895909112019F70923071F46ADE78
:1019800084E690E0C6DFE0913601F091370122E075
:101990004DE16FEF84819581EAC00895AEE0B0E03B
:1019A000E4EDFCE00C944C3B142F622E702E6B0186
:1019B0007C010F7080E389838A838B838C838D8382
:1019C0008E83F7FE0AC06ED9F094E094D094C09450
:1019D000C11CD11CE11CF11C04C075FE02C08BE2CD
:1019E00018DF033071F0043099F00530C1F0063093
:1019F000F1F0073021F174E6872E912CA12CB12C47
:101A000025C068EE862E63E0962EA12CB12C1EC058
:101A100050E1852E57E2952EA12CB12C17C040EA3B
:101A2000842E46E8942EAA24A394B12C0FC030E44F
:101A3000832E32E4932E3FE0A32EB12C07C020E882
:101A4000822E26E9922E28E9A22EB12C9AE0292E88
:101A5000312C412C512CC814D904EA04FB0470F039
:101A6000C701B6016B5F7F4F8F4F9F4FA20191015E
:101A70000E945E3A69017A011F5FEDCF81E1810F1B
:101A80009BEA899F812D1124A82EA69486E0811BB4
:101A9000899F112D11241695912F990F190F811BD4
:101AA000182F4E0187E0880E911C2AE0A401C7017F
:101AB000B6010E948B3BF40101900020E9F73197B9
:101AC0007F01E818F9089E2C6701DD24812F90E042
:101AD00004968C159D0514F4A3941D5F8A2D90E047
:101AE000845D9F4F0E94DF3BA82E74FE04C09016B9
:101AF00010F40E1901C000E08E2C811A800E18140B
:101B000024F08EE286DE012F0E19111102C088EF3B
:101B1000882E912C10E0C00ED11EE82C082C000C51
:101B2000FF08892D90E08C159D05ACF4FC013696DC
:101B3000E01BF10B81E090E08C0F9D1FE80FF91F77
:101B4000808167DE9394892D90E08E159F0549F77B
:101B50008EE25FDEE6CFAA2011F08A2D5ADE6620E3
:101B600011F0862D56DE2E96E2E10C94683B0F9321
:101B7000362FBC0180E090E0022F242F432F0EDF90
:101B80000F9108950F93062FBC0180E090E026E5A9
:101B90004DEF04DF0F9108950F93042F28E440E0E8
:101BA000FDDE8AE736DE7CD80F910895E82FF0E05D
:101BB000EE0FFF1FE453FE4FA591B49190910001E9
:101BC000490F90910501690F20E0CD01B0CE089535
:101BD000CF93DF93C82FD62FE0913601F0913701D4
:101BE00048E16EE18685E2DFE0913601F091370150
:101BF0004D2F6C2F8485DADFE0913601F0913701AB
:101C000040E06EE18585D2DFDF91CF9108951F938B
:101C1000CF93DF9397DC80ECB7DD62E082ED91E05B
:101C2000DFDD80E8B1DD87E092E0F0DD60E085E0B7
:101C300056DC85E791E06DDE69E085E050DC8DE6FD
:101C400091E067DE88E99AE3CCD07CDC83E49CDD1C
:101C500083E09ADD80E192E0D9DD61E082E03FDC63
:101C60008EE4D7DD1FD88FE891E053DE6AE082E092
:101C700036DC80E5CEDD16D88FE891E04ADE88E9D3
:101C80009AE3AFD05FDC81EC7FDD81E87DDD89E622
:101C900092E0BCDD60E085E022DC8EE4BADD02D8B3
:101CA00085E4B7DD89E891E034DE69E086E017DCA1
:101CB00080E5AFDD0E94520685E4ABDD89E891E066
:101CC00028DE88E99AE38DD03DDC81E45DDD8DE599
:101CD00092E09CDD81E058DD89E392E097DD60E0F1
:101CE00081E0FDDB8EE495DD0E94520684E491DD07
:101CF00089E891E00EDE69E082E0F1DB80E589DDD4
:101D00000E94520684E485DD89E891E002DE88E9DC
:101D10009AE367D017DC82EC37DD82E835DD8FE2AD
:101D200092E074DD60E085E0DADB8EE472DD0E9433
:101D3000520685E46EDD84E991E0EBDD69E086E042
:101D4000CEDB80E566DD0E94520685E462DD84E933
:101D500091E0DFDD88E99AE344D0F4DB82E414DD2E
:101D600089E292E053DD82E00FDD87E192E04EDD13
:101D700061E081E0B4DB8EE44CDD0E94520684E435
:101D800048DD84E991E0C5DD6AE082E0A8DB80E51A
:101D900040DD0E94520684E43CDD84E991E0B9DD37
:101DA000C0E012E18C2F612F0E942B3A91110BC0E1
:101DB000D82FD37021F488E99AE313D0C3DB60E015
:101DC0008D2F880F8CDB8CE18C0F23DDCF5FC43629
:101DD00049F788E99AE305D0B5DBDF91CF911F91F0
:101DE0000895EF92FF920F931F93CF93DF93F82EF6
:101DF000E92EC5E64F9B05C0CF2DDE2D15E500E091
:101E000019C081E059D8C150A9F7F6CF82E054D863
:101E1000110F4F9B1F5F1F731F3379F4011103C014
:101E2000CF2DDE2D04E00F5F083C88F4A8951C162A
:101E30001D0644F0D7FFEACF0AC01111F7CF0023E7
:101E4000A9F305C02A97B1F7CFEFDFEFF3CF802FCB
:101E5000CDB7DEB7E6E00C94743BCF934EDBC82FD2
:101E6000809138018823D1F0813051F4C33041F49E
:101E700061E186E034DB8BE2CCDC61E186E02FDBE4
:101E800080E49FE1AEDFC33041F4809138018130BE
:101E900021F460E086E023DBBCDB38DBCF910895E2
:101EA0001895189530911101A0913601B091370124
:101EB000E9E8F1E080E090E08317B0F441911C96EE
:101EC0002C911C97421719F04581241302C00196EA
:101ED000F3CFFC01EE0FFF1FEB56FE4F2081318147
:101EE000293E334008F4089584E1089510921301C7
:101EF0001092110110926801109248011092120183
:101F00001092340110926F01E3E5F1E0108211822A
:101F10001282E3E7F1E0108A82E0818B10921901CE
:101F200017861686148215821682178281EF838B9C
:101F300008958FE40E94240786E40E94240786E423
:101F40000E942407F3DAEDDA5E980E943A0780E0F7
:101F500090E047CF08951F93CF93DF93162F98E01B
:101F600097B998B9E82FF0E0EF57FD4F949195B9E4
:101F7000262F281BE20FF11D27FDFA95E491E92B8E
:101F8000E4B90E949407EC01812F0E949407AC01F0
:101F90002091290130912A0136952795C90103978F
:101FA000BE01625E7F4F8617970778F4255E3F4F2C
:101FB000C217D30750F4BA01625E7F4F86179707A6
:101FC00020F481E04217530708F080E014B8DF9155
:101FD000CF911F910895CF9361E080E0BCDFC82FBF
:101FE00062E080E0B8DFC80F62E081E0B4DF8C0F10
:101FF000CF910895AFE0B0E0E0E0F0E10C944C3B0D
:10200000B82E10921301807FA9F4E5DF833009F028
:1020100097C398DA82E592E07CDCE3DA8FE3F9DBC0
:1020200080ED97E0DEDE8B30C8F48CDA85EF90E04F
:1020300070DC86C306E910E085DA81EC91E069DCAA
:10204000CADF833021F41F5F143010F007C010E0A6
:1020500088E20E945C07015079F760C0C2DA0E94F2
:102060009D2781EB90E055DC60E08DE193E00E94DC
:10207000EC3B60E08EE193E00E94EC3B60E08CE1A1
:1020800093E00E94EC3B60E082E07BD86C019A8395
:10209000898361E082E075D87C019C838B8360E05A
:1020A00081E06FD88C019E838D8323E040E26EEF48
:1020B000C6015DDD23E040E26EEFC70158DD23E09D
:1020C0004DE16EEFC80153DD2AE5C216D10424F0BC
:1020D00084E190E09A83898369818DE193E00E9495
:1020E000EC3B8AE5E816F10424F084E190E09C835F
:1020F0008B836B818EE193E00E94EC3B0A351105E6
:1021000024F084E190E09E838D836D818CE193E0E7
:102110000E94EC3B82E0809338019FDEEB2DEF7054
:10212000EF87E13011F018E749C1EE24E394F12C78
:1021300078EB872E72ED972E77E4A72EB12CE2E094
:10214000DE2E08E0F0E23F2EC12C1E2D52E2252E9D
:102150008DDA88DA84E55DDBC7010E9445060E94BE
:1021600050061130B9F484EE90E0D3DB64E0809146
:102170002D0190912E0106DD34DA8FED90E0C9DB60
:1021800080917101909172010E9445068EEB8093BF
:102190002501F0C0123091F52091290130912A01DA
:1021A000A8E5BBE10E94A23A24EC36E340E050E00F
:1021B0000E94803A29013A0181E085B9F5E0F4B93D
:1021C00080E00E948807841995099A83898381E1B8
:1021D00084B980E00E948807841995099C838B83C9
:1021E00084E085B984E184B981E00E94880784197C
:1021F00095099E838D8389EC90E0AAC0133059F530
:10220000D5B82AE024B980E00E94880720912901EE
:1022100030912A013695279538872F83821B930B9F
:102220009A83898324B880E00E9488072F813885AB
:10223000821B930B9C838B8305B988E284B981E070
:102240000E9488072F813885821B930B9E838D8384
:102250008BEB90E07DC0143039F482E492E059DBDE
:10226000BADE81116AC275C01530B1F415B8D4B8A0
:1022700080E00E9488079A83898304B981E00E94E4
:1022800088079C838B8334B882E00E9488079E83F2
:102290008D838BED90E05CC0163051F5D4B8D5B885
:1022A00080E00E9488072091290130912A01821B39
:1022B000930B9A83898304B905B981E00E9488074A
:1022C0002091290130912A01821B930B9C838B83DF
:1022D00034B835B882E00E948807209129013091F6
:1022E0002A01821B930B9E838D8387ED90E030C083
:1022F000173079F52091290130912A01A8E5BBE139
:102300000E94A23AA50194010E945E3A29013A0175
:10231000D5B8E3E0E4B980E00E9488078419950904
:102320009A83898305B9FCE0F4B981E00E948807AB
:10233000841995099C838B8335B820E324B982E006
:102340000E948807841995099E838D8385EB90E010
:10235000E0DA47D989819A810E943A060E945006A4
:102360008B819C810E943A060E9450068D819E813D
:102370000E943A0607B908B914B815B888EE93E078
:1023800030DD143011F08B3020F4C39484E0C81297
:10239000DFCE88EE93E025DDEFEFEE1AFE0AF8E0DF
:1023A000EF16F10409F0D0CEBECE60D982E492E0FF
:1023B000B0DA84E60E945C07115019F00CDE81113E
:1023C000F4CFC0D88AEA90E0A4DA23E04DE16FEFC1
:1023D00080912B0190912C01CADB03D983EA90E014
:1023E00098DA23E04DE16FEF809132019091330153
:1023F000BEDB82E08093380130DD10921301A2D859
:102400008FE990E086DA60E082E00E948C244090C0
:102410007B0150907C0160907D0170907E015C8614
:102420004B8661E082E00E948C2480907B0190903A
:102430007C01A0907D01B0907E019E868D8660E03B
:1024400081E00E948C2400917B0110917C011E830D
:102450000D8362E080E00E948C2480917B0190914A
:102460007C019C838B8362E081E00E948C248091BC
:102470007B0190917C019A87898761E080E00E94CE
:102480008C24E0907B01F0907C01FA82E982C20109
:102490000E944F06C4010E944F06B801110F880B1D
:1024A000990B03E026E444EF79DA2F85213021F0FF
:1024B00080913101823031F482E0E80EF11CF8861F
:1024C000EF8204C0F886EF82109231018E010F5F17
:1024D0001F4F6E01EFE0CE0ED11CF801819191915A
:1024E0000A97853B9105C8F4EC15FD05B9F74CE357
:1024F000E42E43E0F42EF80160810E5F1F4F6E5E04
:10250000C7010E94EC3BFFEFEF1AFF0A0C151D05F7
:1025100091F767D885EA91E0FCD982E08093380191
:102520009CDC0E94C1362F85213029F08091310139
:10253000823009F0EBC006D880E0DDD98BE491E071
:10254000E8D982E0D8D984E290E0E3D920E4F22E01
:1025500010E03AE0832E912CA12CB12CC7DC109214
:10256000130160E082E00E948C240091850120919B
:102570007301309174014091750150917601073FCC
:1025800044F40F5FCA01B901A50194010E945E3AAB
:10259000F6CF00938501209373013093740140932B
:1025A000750150937601073F09F098C0DA01C9011F
:1025B00080569109A109B10980399545A105B10558
:1025C00008F08CC06091870170918801CB018B5617
:1025D0009F4F8B32914008F081C01F5F153008F487
:1025E0007EC083E493E00E94FA3B0E94A20A8DE140
:1025F00090E08FD980918701909188010E943A06DE
:102600000E94060888E088B989E087B980E284B929
:1026100082E00E949407853D9340D4F714B810924D
:1026200028011092270182E00E9494078C0180917A
:102630006D0190916E01909328018093270182E0B3
:102640000E9494077C01EE0CFF1C1092280110924E
:10265000270182E00E949407A0906D01B0906E0166
:10266000B0922801A0922701800F911F8C010E19B2
:102670001F090E94F10A86E190E04BD985E493E0BE
:102680000E94DF3BD82E9501D8010E94B13A9701F4
:102690000F2C000C440B550B0E94803A13E01D0DCB
:1026A000120F612F85E493E00E94EC3B812F012EF5
:1026B000000C990B0E943A060E94060882E0809363
:1026C0003801CBDB109231018CE393E00E94DF3BB9
:1026D000682F8FE393E00E94EC3B18C010E00E944B
:1026E000F10A60917301709174018091750190916C
:1026F000760104E026E44091850150D90E94090B3F
:1027000088E20E945C07FA94F11028CF84E6809357
:10271000250180E00E94D6390E94A20A85EF90E050
:10272000F8D80E94F10A89E392E0F3D810921301DD
:1027300082E08093380191DB03C082E0C82E09CE8D
:102740002F96E2E10C94683B8091310181110DC01C
:102750008CE393E00E94DF3B61E0680F8FE393E03E
:102760000E94EC3B81E0809331010895EF92FF924B
:102770000F931F93CF93DF93D62FE82FF0E0EC5702
:10278000FD4FE491E8B9E860E7B915B8E62FF0E04D
:10279000EF57FD4FE491E4B988E8E82E83E1F82E85
:1027A000CE2FCC0F8D2F0E9488078C01C4B98E15B7
:1027B0009F0510F47801F6CF892BE1F00E94010B00
:1027C0008BE291E0A6D8D80120EA36E841E050E05B
:1027D0000E94B73A28E937EB40E050E00E945E3AA9
:1027E000DA01C90122E041E467EFC1D988E087B985
:1027F00088B914B8CDB7DEB7E6E00C94743BA0E01E
:10280000B0E0E5E0F4E10C944C3B80E48AB98BB98C
:10281000C6E8C0937A001092C1000E943C07D4B76A
:1028200084B7877F84BF0FB6F894A8958091600025
:10283000886180936000109260000FBEC0936400B6
:1028400088E380937E001092B00087E08093B1000F
:1028500078940E94B90AD3FD9DC580E185BFC0E090
:102860004F9906C082E00E945C07CF5FCC33C1F76E
:102870008FE59DE690930C0180930B01CF3130F0F2
:1028800080E69DE690930C0180930B011092260147
:102890000E949D279FE088E10FB6F894A895809349
:1028A00060000FBE90936000CC3389F038E0932E27
:1028B00048E1842E59E3C52E51E0D52E69E5E62E78
:1028C00061E0F62E7CE0272EEDE03E2E33C00E9424
:1028D000D9308111FCCFEACF823009F452C1833064
:1028E00009F47BC18DE992E014D885E892E011D813
:1028F0000E94F10A80911101805D0E94090C8AE218
:102900000E94090C87E291E004D88BE692E001D89E
:102910000E94960A86E00E94C40B80E49FE187B87B
:102920004F9BFECF5EDA823308F4C6C40E94D930D2
:102930008111FCCF8FEA0E948D0A84EA0E948D0AE1
:102940000E94A20A97B8D2DA0E949D270E949B0A91
:1029500033D580913401882379F00E94F10A80E414
:1029600091E00E94890C63E08091290190912A01F5
:1029700009D988EC0E945C070E94F10A0E94BC23DE
:1029800080911301893021F50E94A20A85E491E02B
:102990000E94890C0E94F10A63E080914D019091A0
:1029A0004E01F0D80E94500663E080914F01909153
:1029B0005001E8D80E94500663E080915101909147
:1029C0005201E0D88AEC0E945C0781E113DB6FC4FE
:1029D0008FE393E00E94DF3BC82F8CE393E00E94DB
:1029E000DF3BC81BC093310180E004DB0E94360B43
:1029F00087EB92E00E94890C83E00E9424070E94EA
:102A0000960A42E061E080E051D542E060E081E07A
:102A10004DD541E062E080E049D541E060E082E0F0
:102A200045D540E062E081E041D540E061E082E0F0
:102A30003DD58091130181110EC00E94BC2360E03E
:102A400082E00E948C2461E082E00E948C2460E09D
:102A500081E00E948C240E94A20AD0923701C09289
:102A6000360180911301863069F485EC0E94C40B15
:102A700060E188EFADD867E080E00E946F0A8EE8E1
:102A800092E00EC08730E9F484EC0E94C40B60E150
:102A900088EF9ED867E080E00E946F0A87E992E0A5
:102AA0000E94890C67E082E00E946F0A89E591E04C
:102AB0000E94890C62E080913D0190913E0162D8B4
:102AC000F4C3883081F4209183018091840190E0E7
:102AD000820F911D029719F40E94F829EFC380E03C
:102AE0000E942B29E4C3833009F0B6C08091110104
:102AF000813009F0F1CE80E00E94F80660918901F2
:102B000080918F0133DE80E70E94D00640E0609123
:102B1000890180918F010E94E33560937301709366
:102B20007401809375019093760180E00E942A0BD6
:102B3000609173017091740180917501909176019B
:102B400002E026E442EF0E94CE0C0E94520641E0D1
:102B50006091890180918F010E94E3356093730138
:102B600070937401809375019093760126E442EF8F
:102B70000E94CE0C8CE191E00E94890C0E94960A82
:102B8000F7C282E30E94090C8DE091E00E94890C5B
:102B90009091890130918A01931307C080E00E94CF
:102BA000140781E00E940B070CC020918F018091D7
:102BB0009001281308C080E00E94040781E00E9471
:102BC0001B0781E0A1CF321302C081E003C098133C
:102BD00089CE80E18093060131C023E32093060172
:102BE00080918F0190918A01891303C021E0209385
:102BF00006014091890130919001431303C020E107
:102C00002093060120918B01821303C082E0809300
:102C1000060180919101481303C040E240930601F0
:102C200032130FC032E130930601981761F083E34D
:102C30000E94090C8DE091E00E94890C0E94E6063A
:102C400097C2981303C081E2809306018091060128
:102C5000823208F047CEEBCF843009F053C1809127
:102C60006801882309F45EC080914801882309F433
:102C700059C060914501809147010E948C24409089
:102C80007301509074016090750170907601C0914D
:102C9000850160916701809165010E948C2480917B
:102CA000390190913A01A0913B01B0913C014091D2
:102CB000590150915A0160915B0170915C01843F10
:102CC00021E09207A105B10538F4443F31E05307F4
:102CD0006105710508F0C0EF443F51406105710581
:102CE00040F4843F9140A105B10518F080EF809336
:102CF000850180918501C8130EC080917301909168
:102D00007401A0917501B0917601481659066A06C2
:102D10007B0618F005C0C8171CF43092120102C0DF
:102D20002092120180916801882361F0809148010E
:102D3000882341F04F9906C09091120181E08927C4
:102D40008093120167E080E00E946F0A80EC0E948D
:102D5000C40B809112018C3051F485E791E00E9400
:102D6000890C809168018823A9F080E711C0F09256
:102D70003701E092360187E092E00E94060C8DE672
:102D800091E00E94890C80914801882319F08EE619
:102D90000E94090C87D8C82F8530A0F4A091360175
:102DA000B0913701E82FF0E0E757FE4F1D969C9158
:102DB0008081981711F062E001C060E082ED91E03F
:102DC0000E94F00B60E189EF0E94E80D87E00E940D
:102DD0000F0B84E891E00E94890CE0913601F0919C
:102DE0003701608171818281938103E020E04EEFA1
:102DF0000E94CE0C88E00E940F0B89E40E94090C0F
:102E0000E0913601F09137018681978180319742B8
:102E100070F085E60E94090CE0913601F0913701CF
:102E200086819781805197429783868303C083E68A
:102E30000E94090C0E945406E0913601F09137017E
:102E400022E041E46AEF868197810E94B70D87E016
:102E50000E940F0B8DE591E00E94890CE0913601F4
:102E6000F091370163E0848195810E94C20D81E079
:102E700080933801E0913601F0913701808591858A
:102E8000892B91F086E00E942A0B8FEE90E00E9441
:102E9000890CE0913601F091370122E041E46AEFBC
:102EA000808591850E94B70DE0913601F091370140
:102EB00082859385892B91F086E00E942A0B89EE0A
:102EC00090E00E94890CE0913601F091370122E0F8
:102ED00041E46AEF828593850E94B70DC53078F48E
:102EE00080E00E942A0B8C2F0E94F80689E591E071
:102EF0000E94890C8C2F0E94C2060E94960A43E40D
:102F000062E432C1853009F03FC167E080E00E9491
:102F10006F0A8091120184FF09C080E50E94090CAC
:102F2000F0923701E0923601C2E004C08EE40E94C4
:102F3000090CC0E00E94520680911201D82FDF7068
:102F4000D43061F48FE891E00E94890C83EC0E94F8
:102F5000C40BCC23E1F180E192E037C085FF05C0CE
:102F600084E40E94090CCF5F03C085E40E94090C31
:102F7000D330B1F489E891E00E94890C81EC0E9481
:102F8000C40BC13019F48DE592E01FC0C23019F4B2
:102F900089E692E01AC0C330D1F489E392E015C00B
:102FA00084E991E00E94890C82EC0E94C40BC1303C
:102FB00019F489E292E009C0C23019F48FE292E07C
:102FC00004C0C33021F487E192E00E94060C0E9405
:102FD000520F8530A0F4A0913601B0913701E82F4F
:102FE000F0E0E757FE4F1D969C918081981711F0F5
:102FF00062E001C060E082ED91E00E94F00B60E1D0
:1030000089EF0E94E80D87E00E940F0B809112016A
:1030100085FD1CC085E591E00E94890CE091360198
:10302000F091370162E0828593850E94C20DE091A4
:103030003601F0913701668584850E948C2487E0F3
:103040000E940F0B0E94A20C86E06EC08F70E09170
:103050003601F0913701843039F0668584850E940D
:103060008C240E94A20C13C084819581892B79F055
:1030700080E090E00E94890CE0913601F0913701E8
:1030800022E041E46AEF848195810E94B70D60E0FF
:1030900084E00E946F0A89E40E94090C84E60E9481
:1030A000090C0E945406E0913601F091370122E0AC
:1030B00041E46AEF868197810E94B70D8FE491E029
:1030C0000E94890CE0913601F091370162E082851F
:1030D00093850E94C20DE0913601F0913701808501
:1030E0009185803C9241F8F480E00E942A0B89E4AB
:1030F0000E94090C84E60E94090C0E94540622E0FA
:1031000041E46BEF80E090E00E94B70D8FE491E026
:103110000E94890CE0913601F091370162E08085D0
:1031200091850E94C20D80E00E94BA0CD43009F44F
:1031300029C1C0E080911101C81788F480E00E9485
:103140002A0B8C2F0E94F80689E591E00E94890CD9
:103150008C2F0E94C2060E94960ACF5FEBCFD3301D
:1031600009F014C143E467E485E40E947D069DC034
:103170000E94960A80916F01882309F498C087B84D
:1031800097B880E00E942A0B20916F01222309F456
:103190007FC02130A1F4809156010E9493062091B6
:1031A0005601213039F420911101211103C00E94F0
:1031B000B32984C040E0692F0E946E2878C09091A6
:1031C00056018091570134E0839FD0011124AA5504
:1031D000BE4F34E0939FF0011124EA55FE4F4D900D
:1031E0005D906D907C904081518162817381441526
:1031F00055056605770510F4C82F01C0C92F223088
:1032000021F4890FC3E0C81B1CC08091580194E0D1
:10321000899FD0011124AA55BE4F24E0C29FF0011E
:103220001124EA55FE4F0D911D912D913C91408145
:10323000518162817381401751076207730708F457
:10324000C82F1C2F1695D2E0DC1BC11102C001E073
:1032500001C002E0812F0E947B0C88E091E00E9477
:10326000890C8D2F0E947B0C88E091E00E94890CD4
:10327000802F0E947B0C80E00E940F0B81E0C11127
:1032800080E00E949D0682E0811B0E949D060FC087
:1032900085E792E00E94890C0E94F10A82EA92E09E
:1032A0000E94890C8DE992E032CB0E94960A8091AF
:1032B0000B0190910C0133CB81113CCB80913101FA
:1032C000882309F45CC0D4E000E010E080E090E0E6
:1032D00022E1422EFC01E00FF11FE957FD4FC4919E
:1032E000C03211F0CE3F09F4482E0196833191058A
:1032F00089F7DD2339F03D2F3370B32E51F40E944E
:10330000A20A07C080E29EE40E94F10E882399F38E
:1033100032C060E08B2D880F0E946F0A0E94960ACF
:10332000A895DF5FD370A12CB12CA414B0F4F801E0
:10333000EA0DFB1DE957FD4FC491CC23E1F0CF3FCF
:1033400019F40E94500605C0CE3F19F08C2F0E9440
:10335000090C8FEFA81AB80AE8CFCC2361F0040D4E
:10336000111DF801E957FD4FE491E03209F0AECFAD
:103370000F5F1F4FABCF80E29EE40E94F10E0E94D0
:10338000990FD8CA4FE367E48FE3EFCE44E467E4D4
:1033900083E5EBCE0E949B0A82E692E00E94890CB4
:1033A0008BEC0E945C070E94990F80E090E0CDB703
:1033B000DEB7E2E10C94683B0F931F93CF93DF934A
:1033C00085E00E94940785E00E9490078C019C0193
:1033D000A2E4B0E00E94A23A21E230E040E050E0F6
:1033E0000E945E3AE901229610922F01C43883E0D0
:1033F000D80750F489E991E00E94890C0E94090BDA
:1034000081E080932F0126C088EA91E00E94890C18
:1034100062E0CE010E94C20D0E94500600318EE093
:10342000180790F400381C4060F48BEA92E00E9488
:10343000890C0E94090B8DEC0E945C070E94990F79
:1034400009C082EB92E002C085EA91E00E94890CFB
:103450000E94090BDF91CF911F910F910895CF9397
:10346000DF93DC019C01261B370BE0E090E0B90103
:10347000690F711D672F7727920F260F371FBA012B
:103480006E0F711D672F7727E40FEB01CC0FDD1F47
:103490004C0F5D1F6B3E28F4A217B30740F7CA011B
:1034A00002C080E090E0DF91CF910895A8E1B0E004
:1034B000ECE5FAE10C944C3B582E462E342EA895A0
:1034C000E62FF0E0EF57FD4F24912C87220F2B8B36
:1034D000339634913A8BE42FF0E0EF57FD4F44914F
:1034E0004983339654915F83E82FF0E0EF57FD4F07
:1034F0002490822D880F8F87339694919B839860B8
:103500009C8338603A8345B9AC84A42AA4B897B99F
:10351000EB81E8B9862F0E9490079E878D87FC85F6
:10352000F4B9842D0E9490073C0114B80E9445070D
:1035300015B8A4B8842D0E9490076D857E850E94E1
:10354000F2076C012A8127B988E088B939813229CC
:103550003D8335B934B9852D0E9490070E94F80744
:103560007C0115B80E94450725B8852D0E9490075B
:103570000E94F8078C0124B8852D0E9490070E94B4
:10358000F807B82E9987B801C7010E94F207803268
:1035900041E0940730F450E2C51651E0D50608F436
:1035A000B6C5C00ED11EED85FE858E0F9F1FC816B5
:1035B000D90620F41E870D876B2C79842091480151
:1035C00030916801822F90E0830F911D02974CF09B
:1035D000213009F09CC590914501809165019813B7
:1035E00096C5F981FF0FF88FF229FB872D853E855F
:1035F0002437310508F4A5C1C901880F991F4496E5
:103600006816790608F09DC13C8137B94B8148B9ED
:103610008C85588D852B84B9842D0E948C078C0154
:10362000832D0E9494077C01888D85B9842D0E948A
:103630008C079801295A3D4F2817390708F0B4C064
:1036400088E088B99A8197B9EB85E4B9E5B9832D0B
:103650000E948C0788349F4028F085E080931301F6
:1036600082E204C085E08093130184E2809312011A
:1036700010933E0100933D01B701C8010E94FD0770
:1036800090934401809343019801A0E1B7E20E9426
:10369000A23A20910D0130910E0140E050E00E94CD
:1036A0005E3A3093400120933F018B89288D822B15
:1036B00084B915B83C8137B94B8148B9832D0E9434
:1036C00094078C01842D0E948C07B8010E94FD078D
:1036D0009C019093420180934101909112019F704F
:1036E000943081F540913F01509140016091430138
:1036F00070914401C901B3DE009701F1588D54B9AE
:10370000EA898C81E82BE7B9842D0E948C078C0113
:1037100088E087B99801A0E1B7E20E94A23A20911F
:1037200032013091330140E050E00E945E3AA9013D
:10373000B801809141019091420191DE90933E0148
:1037400080933D01809112018F70843009F4D6C4BA
:1037500088E088B99F81EA819E2B97B924B8FD81C2
:10376000F5B9852D0E9490078C010E94F8079E8371
:103770008D83842D0E949407E0901401F090150130
:10378000BC01C8010E94FD079701DC010E94A23A1A
:10379000ED81FE819F0140E050E00E945E3A30934F
:1037A0003E0120933D01AAC488E088B9FA81F7B9A7
:1037B0002B8524B925B9852D0E948C078C01832D7A
:1037C0000E9494077C0125B8852D0E948C07895A98
:1037D0009D4F8017910708F09AC43B8138B94C81FE
:1037E00047B9832D0E948C07813D934028F485E0E2
:1037F0008093130182E304C085E08093130184E386
:1038000080931201B801C7010E94FD0790936401E3
:1038100080936301C8010E94F8079C01A0E1B7E210
:103820000E94A23A209114013091150140E050E02D
:103830000E945E3A3093600120935F01F8E0FF2E12
:10384000F8B88A8187B98F85988D892B84B985B915
:10385000852D0E9494078C01832D0E948C07B8014E
:103860000E94FD079C0190936201809361019091F9
:1038700012019F709430A1F540915F015091600159
:103880006091630170916401C901E9DD009721F144
:10389000E88DE5B9E4B9FB81F8B9EC812A81E22B26
:1038A000E7B9852D0E948C070E94F8078C01F7B8B4
:1038B0009C01A0E1B7E20E94A23A20912B01309135
:1038C0002C0140E050E00E945E3AA901B8018091CD
:1038D000610190916201C3DD90935E0180935D016F
:1038E000809112018F70843009F4E0C1EB813F8137
:1038F000E32BE8B94C81342B37B915B85D8154B945
:10390000852D0E9490077C01842D0E9494079E8340
:103910008D8300910D0110910E01BC01C7010E9421
:10392000FD079801DC010E94A23AED81FE819F0112
:1039300040E050E00E945E3A30935E0120935D01CA
:10394000B5C188E088B9FA81F7B925B82B8524B9C3
:10395000852D0E949007998B888B0E94F807988785
:103960008F83832D0E9494079A878987430134E6C9
:10397000830E911C4F815885B30184169506D8F4A7
:10398000CA010E94FD078C0120911401309115019C
:1039900040E050E060E871EA83E09CE10E945E3A1A
:1039A000D8010E94B73AE985FA858F0120E030E01E
:1039B000A901980123C08F8198850E94FD078C0181
:1039C000FD81F4B9852D0E949007998B888B0E9408
:1039D000F80798878F83832D0E9494079A87898799
:1039E000BC01C8010E94FD079C01A4E6B0E00E9452
:1039F000A23AE985FA859F0140E050E00E945E3AD4
:103A000069017A0114B815B8FB81F8B92C8127B97E
:103A100081E00E945C07A4B8842D0E949007BC84BA
:103A2000388DB32A8F359D4008F446C1B4B8842D33
:103A30000E948C078C01832D0E9494079D8B8C8B98
:103A4000852D0E9494079F8B8E8B8C899D89813D4B
:103A5000974008F4B7C084E0809313018DE0809311
:103A600012016016710630F49801261937093E8359
:103A70002D8302C01E830D8380900D0190900E0156
:103A8000A12CB12C60E871EA83E09CE1A5019401CE
:103A90000E945E3AAD81BE810E94B73AEC89FD89F1
:103AA0009F0140E050E00E945E3A809168018823C7
:103AB00069F08091590190915A01A0915B01B091F8
:103AC0005C0182179307A407B50708F520935901F5
:103AD00030935A0140935B0150935C019801A0E13F
:103AE000B7E20E94A23AA50194010E945E3A309387
:103AF000600120935F016C897D898E899F890E9476
:103B0000FD0790935E0180935D0181E001C080E03C
:103B10004091590150915A0160915B0170915C0193
:103B20004C155D056E057F0538F5C0925901D092A0
:103B30005A01E0925B01F0925C0169857A8588897F
:103B400099890E94FD0790935E0180935D012F810A
:103B50003885A0E1B7E20E94A23A20911401309189
:103B6000150140E050E00E945E3A205F384D3093EE
:103B7000600120935F0103C0882309F4B1C3C090A2
:103B80000D01D0900E01E12CF12C9301A0E1B7E2E0
:103B90000E94A23AA70196010E945E3A3093620108
:103BA000209361012D853E85A0E1B7E20E94A23AF3
:103BB000A70196010E945E3A30936401209363014D
:103BC00081E08EC3F1E66F16710408F075C0013D07
:103BD00027E0120708F470C085E08093130182E1AA
:103BE00080931201C80186509F4F4E895F898417C8
:103BF000950720F483E18093120119C080910D0193
:103C000090910E019E838D83B8018E899F890E94B9
:103C1000FD072D813E81DC010E94A23A980140E01F
:103C200050E00E945E3A30935E0120935D019A89D4
:103C30009770E92E832D806480937C00EBE0FE2E4C
:103C4000E1E0F0E0FE83ED830FEF13E0A89561E083
:103C500089817AD5B4B886B18E21E9F3FC85F4B9AF
:103C600080917A00806480937A0080917A0086FD4A
:103C7000FCCF80917800909179009801281B390B36
:103C80004D815E81420F531F5E834D83FA94F11084
:103C9000DDCFCA01880F991F880F991F69E070E076
:103CA0000E94373A709364016093630180916801C8
:103CB0008F5F8093680184CFB4B8588D55B9842D37
:103CC0000E9490076C01832D0E94940798878F8330
:103CD0000E94F8079A8789878C149D04A8F4B30181
:103CE000C6010E94FD078C0120910D0130910E014B
:103CF00040E050E060E871EA83E09CE10E945E3AB7
:103D0000D8010E94B73A1FC0A4B8F981F5B9842D33
:103D10000E9490076C01832D0E94940798878F83DF
:103D20000E94F8079A878987C6016C147D0410F4F5
:103D30008619970969857A850E94FD079C01A4E68A
:103D4000B0E00E94A23AE985FA859F0140E050E088
:103D50000E945E3A49015A01FA81F7B988E088B9B0
:103D60002D8124B925B9852D0E9490078C01832DC2
:103D70000E9494079A878987842D0E9494077C016A
:103D8000003331E1130708F0BFC125B8852D0E942B
:103D90009007998B888B24B8852D0E9490079D8B66
:103DA0008C8B15B881E00E945C0725B8852D0E9498
:103DB00090074C895D894034564008F05DC08133DE
:103DC000914108F459C0C8018A569F4F2889398902
:103DD0002817390708F050C086E0809313018091BE
:103DE00048018F5F80934801B70189859A850E94B9
:103DF000FD0790933E0180933D01B701C8010E94E9
:103E0000FD07909344018093430114B815B83A8993
:103E100038B981E00E945C0724B8852D0E94900784
:103E2000853F910508F06AC24D8144B9832D0E94F7
:103E30009007813D934008F461C2852D0E9494074C
:103E40008D3D924008F45AC224B8852D0E949007F7
:103E50008D3D924008F452C225B881E00E945C0773
:103E600015B8852D0E949007853F910508F046C240
:103E700087E08093130142C22A8127B9398134B97E
:103E800035B981E00E945C074B8544B945B9852D61
:103E90000E9490078C010E94F807998B888B832DD4
:103EA0000E9494079E838D830E94F8079A878987D2
:103EB000842D0E9494077C0189859A858E3F9940C4
:103EC00008F4B2C084E0809313018CE08093120167
:103ED000B301888999890E94FD078C012091140102
:103EE0003091150140E050E060E871EA83E09CE128
:103EF0000E945E3AD8010E94B73AE985FA859F018F
:103F000040E050E00E945E3A80914801882369F0C9
:103F10008091390190913A01A0913B01B0913C010F
:103F200082179307A407B50728F52093390130932A
:103F30003A0140933B0150933C01B7018D819E8132
:103F40000E94FD0790933E0180933D0128893989A5
:103F5000A0E1B7E20E94A23A20911401309115012C
:103F600040E050E00E945E3A3093400120933F01D0
:103F700081E001C080E04091390150913A016091A7
:103F80003B0170913C01481559056A057B0528F5F0
:103F90008092390190923A01A0923B01B0923C018B
:103FA000B6018F8198850E94FD0790933E01809312
:103FB0003D019601A0E1B7E20E94A23A20910D01D5
:103FC00030910E0140E050E00E945E3A205F384D93
:103FD0003093400120933F0103C0882309F48FC12F
:103FE0009301A0E1B7E20E94A23A20910D01309125
:103FF0000E0140E050E00E945E3A3093420120936F
:1040000041012D853E85A0E1B7E20E94A23A2091B0
:1040100014013091150140E050E00E945E3A309367
:104020004401209343016AC1F1E66F16710408F060
:104030006BC02889398929343D4008F465C085E082
:104040008093130182E080931201C70186509F4F35
:104050008017910720F483E08093120117C0C0906D
:104060001401D0901501B701C8010E94FD07960107
:10407000DC010E94A23AE889F9899F0140E050E002
:104080000E945E3A30933E0120933D010B81077000
:10409000832D806480937C001BE021E030E03E8330
:1040A0002D83A89560E089814FD33B8534B935B91C
:1040B00086B18023E9F724B880917A0080648093E8
:1040C0007A0080917A0086FDFCCF809178009091F3
:1040D00079004D815E81480F591F5E834D831150D9
:1040E00001F7CA01880F991F880F991F69E070E0D6
:1040F0000E94373A709344016093430180914801D4
:104100008F5F80934801FAC088E087B988B914B8F6
:1041100015B888E087B957EC651651E0750608F4C4
:10412000D0C088B98F8584B998EC9D83EC81FA81E1
:10413000EF2BEF832F8127B981E00E945C073A8142
:1041400037B9852D0E949407429728F04D81415040
:104150004D834111EFCF5F8554B955B961E0898135
:10416000F3D2852D0E9490076C018B8984B915B814
:104170009C8197B9EB81E8B960E08981E5D2842D13
:104180000E9490070E94F8079E838D83FC85F4B9F6
:10419000842D0E9494078C01852D0E949007B80100
:1041A0000E94FD077C01842D0E9494078C01852DBF
:1041B0000E949007B8010E94FD0797012C5E3F4FB7
:1041C0002817390708F480C088E088B92A8127B900
:1041D00024B825B861E08981B7D2842D0E94940764
:1041E0008C01852D0E949007B8010E94FD078C016B
:1041F000E816F90658F43F8534B935B9852D0E9483
:1042000090079C01CD82DE82780110C04B8944B9B1
:1042100015B85C8157B98B8188B960E0898194D2E7
:10422000842D0E9490070E94F8079C0198EEE916E1
:1042300093E0F90630F4C70164E670E00E94373A73
:1042400006C0B70154E0769567955A95E1F7C70126
:104250008759910989389141A0F52E153F0588F5B8
:104260008D819E8143E0969587954A95E1F7893C3B
:10427000910510F088EC90E02D813E81820F931F14
:104280008E159F05F0F462177307D8F4809113011F
:10429000833018F483E08093130120911101822F61
:1042A00090E0FC01E757FE4F50824682880F991F2D
:1042B000FC01EB56FE4FF182E0822F5F209311014B
:1042C00003C0642D852D29D088E087B988B914B83A
:1042D00015B88EE20E94090C6896E2E10C94683BE6
:1042E000909168019F5F90936801882369F33092F1
:1042F00065014092660150926701E6CF81E090919E
:1043000048019F5F909348018823F1F23092450164
:104310005092460140924701D7CFA0E0B0E0E3E9D8
:10432000F1E20C944E3BA895462F50E0FA01EF576E
:10433000FD4F949033969491A82FB0E0FD01EF5774
:10434000FD4FE4903396F4907091680120914801FC
:1043500030E0270F311D232B09F0F1C1A8952091E2
:10436000170130911801220F331F220F331F309392
:104370002A012093290120916D0130916E01220FB5
:10438000331F220F331F30932801209327012EEB78
:1043900020932501C0911101E9E8F1E070E04A0F96
:1043A0005B1F7C1759F02191A58130E02A0F311D48
:1043B0002417350709F456C07F5FF3CFD62FC82FD7
:1043C00088E088B9E92FE860E7B9E4B8E5B8B8E172
:1043D000BB2EC12CD12C8D2F0E949007782E692ED8
:1043E0008C2F0E9494078C018C199D0997FF03C0A4
:1043F000919581959109039734F0A895BA94680135
:10440000B110E9CF2FC0EE0C15B8E4B88C2F0E9484
:1044100090078135910530F5E5B88C2F0E94900703
:104420006C018F2D886087B9F8B815B894B8A8E1E9
:104430008A2EA12CB12C8C2F0E949007582E492E29
:104440008D2F0E9494077C018A199B0997FF03C056
:104450009195819591090397CCF0A8958A9457017D
:104460008110E9CF809117019091180190932A0152
:104470008093290180916D0190916E0190932801A4
:104480008093270184E68093250159C1990C94B843
:104490008D2F0E9490075C01003C84E4180730F4E3
:1044A00025E8C21621E0D206E8F605C080EBC81662
:1044B0008DE4D806B8F624EAE21622E0F20608F007
:1044C0006CC088E9A816B10468F2C6010E94F8071A
:1044D000AC019601A8E9B7EB0E94A23A9A0140E02C
:1044E00050E00E945E3A29013A01C5010E94F80796
:1044F0009C01A8E9B7EB0E94A23A850120E030E0D8
:10450000A90198010E945E3A88E7C8168FE0D80694
:1045100080F4D301C201F2E0880F991FAA1FBB1FCC
:10452000FA95D1F7BC01CD01620F731F841F951F4F
:1045300014C088E7A8168FE0B806B0F4DA01C90104
:10454000E2E0880F991FAA1FBB1FEA95D1F7BC01B3
:10455000CD01640D751D861D971D25E030E040E0FE
:1045600050E00E945E3A0CC0D301C201820F931F3B
:10457000A41FB51F9C01AD0156954795379527950A
:10458000A4E6B0E00E94B73A2B013C012CEA420EAF
:104590002DE0521E611C711C79C0672D762D061707
:1045A000170708F4B801C52CD42CCE14DF0408F486
:1045B00067010617170708F48B01A0901401B0904B
:1045C0001501C8010E94FD079501DC010E94A23A75
:1045D0002B013C01C8010E94F8079C0140E050E01B
:1045E000C301B2010E945E3A29013A01CE14DF04F0
:1045F00008F47601A0900D01B0900E01B701C6013C
:104600000E94FD079501DC010E94A23A4701A12CFE
:10461000B12CA50194010E945E3A08378FE018077B
:1046200080F4D301C20162E0880F991FAA1FBB1F4B
:104630006A95D1F7BC01CD01620F731F841F951FCE
:1046400014C088E7E8168FE0F806C0F4DA01C90163
:1046500032E0880F991FAA1FBB1F3A95D1F7BC0102
:10466000CD01640D751D861D971D25E030E040E0ED
:1046700050E00E945E3A29013A0108C0420E531EE2
:10468000641E751E76946794579447941091130195
:10469000143008F0E7CEC1500C2F0D0F202F30E062
:1046A000E901CD5ADE4F8881220F331F220F331FBD
:1046B000F901EA55FE4F8823D9F1C080D180E2800C
:1046C000F380A30192012C193D094E095F0957FFA0
:1046D00007C050954095309521953F4F4F4F5F4F04
:1046E000AAE0B0E00E94B73A24E6C20ED11CE11C59
:1046F000F11CA7019601240D351D461D571D0E9472
:104700005E3A232B242B252B09F0ACCE133019F065
:1047100081E08093130182E0888380916F01E82F0C
:10472000F0E0EA5AFE4F00838F5F80936F019ACECC
:10473000408251826282738281E0888393CECDB7BA
:10474000DEB7E0E10C946A3BCF93C82FC09595B1DA
:1047500060FF02C0982B01C09C2395B994B1892BAE
:1047600084B982E00E945C0784B18C2384B985B14E
:10477000C823C5B9CF910895A0E0B0E0E2ECF3E220
:104780000C94543B1AE008E08FE3C82E99E0D92E30
:1047900007B908B915B8C4B880E00E9490077C0139
:1047A00081E00E949407EC0182E00E9494079C0142
:1047B00080911301893081F488E087B914B8F092B0
:1047C0004E01E0924D01D0935001C0934F013093C0
:1047D0005201209351015BC084E0E816F10440F4DB
:1047E000C430D10560F42430310530F399E00BC0BA
:1047F00088EEE81683E0F80610F098E001C099E032
:10480000C83ED34008F49260283E334008F49460D8
:1048100097B9C0E0D0E0A89580E00E9488075C01CD
:1048200081E00E9494077C0182E00E94940724E1C9
:10483000A21625E0B20608F4389A24E1E21625E033
:10484000F20608F4399A843125E0920708F43A9A7E
:1048500026E0A216B10430F426E0E216F10410F4CA
:10486000069738F02196C43F81E0D807A1F6D09290
:104870001301E12CF12CEC16FD0631F00E944B07E0
:104880002FEFE21AF20AF7CF115009F081CFCDB71E
:10489000DEB7EAE00C94703BCF92DF92EF92FF928A
:1048A000CF93209173013091740140917501509123
:1048B0007601C09185018AE0C82ED12CE12CF12C23
:1048C0008C2FCF5F213A96E8390791E049075105CF
:1048D00038F0CA01B901A70196010E945E3AF0CFF3
:1048E00080938501A0912901B0912A010E94B73AD5
:1048F00028E833E140E050E00E945E3A20937301E3
:10490000309374014093750150937601CF91FF90DD
:10491000EF90DF90CF900895A0E0B0E0E2E9F4E2FC
:104920000C94523B982F990F980F2FEF260F920F50
:1049300090934A01E82FF0E0EF57FD4F1491262F96
:1049400030E0F901EF57FD4FF490F901EC57FD4FBE
:10495000D49190911301913009F4A2C220911101D8
:10496000A9E8B1E0FD0190E0921791F03681631360
:104970000BC03081831308C01C964D915C911D972C
:104980004C3D554008F48CC29F5F31961296ECCF97
:10499000062FC82FD8601092800110927F0181EFFE
:1049A0008093850110927301109274011092750129
:1049B00010927601E1DE88E088B9D7B9F4B8F5B88D
:1049C0008C2F0E9494075C01802F0E949407A81AE4
:1049D000B90A14B810924C0110924B0180914B010E
:1049E00090914C01843F914008F0AAC015B914B9C8
:1049F0000E94450714B815B80E944C07A8958C2F43
:104A00000E9494077C01EA18FB0880914B01909169
:104A10004C018E37910528F08BE4E816F1040CF474
:104A20008FC080914B0190914C012DE2E21621E064
:104A3000F20634F4019690934C0180934B01CECF53
:104A4000892B09F0A4C185E1E81685E0F8060CF48D
:104A50009EC192DE15B88FE087B988E088B9F12E43
:104A6000FF0CF4B880E480937B0084E580BF8C2F3A
:104A7000806480937C0086E180937A000E944F07D7
:104A800010924C0110924B01109280001092850000
:104A90001092840087E286BB81E280936F0081E000
:104AA00080937001F5B89091130180938100953047
:104AB00009F04CC081E090E00C2E01C0880F0A94F0
:104AC000EAF780958F7087B9F89483B7817F83BFA9
:104AD00080917001882389F083B7816083BF7894C7
:104AE000889583B78E7F83BFF894A89580914B01FA
:104AF00090914C018034964059F77894109281003F
:104B0000E0908600F090870010926F0086E9809315
:104B10007A0014B815B88C2F0E94940720912D01AB
:104B200030912E01821B930B0C96909388018093F9
:104B3000870180914B0190914C018032934040F06D
:104B400088E087B988B914B815B8AAC1D7B9BCCF5D
:104B500080914B0190914C0190937E0180937D0157
:104B6000F0927C01E0927B0184EF8093850180913B
:104B70004B0190914C0182349105C8F060917B010A
:104B800070917C0180917D0190917E0124E630E05E
:104B900040E050E00E945E3A20937B0130937C011C
:104BA00040937D0150937E0186EF80938501A09113
:104BB0007101B091720120917B0130917C01409193
:104BC0007D0150917E010E94B73A20E233E040E03F
:104BD00050E00E945E3A20937B0130937C01409329
:104BE0007D0150937E0120937301309374014093B3
:104BF00075015093760150DE80918501843F09F064
:104C000071C0C0907301D0907401E0907501F09074
:104C1000760180EAC8168FE0D806E104F104C0F4FA
:104C2000A70196012C543F4F4F4F5F4F60EA7FE042
:104C300080E090E00E945E3AC20ED31EE41EF51E94
:104C4000C0927301D0927401E0927501F0927601E6
:104C5000C0907301D0907401E0907501F0907601DE
:104C6000C114D10421E0E206F10428F4D092B70186
:104C7000C092B60106C081E090E09093B7018093A6
:104C8000B60180914A0190E0845C9C4F0E94DF3B1A
:104C900090E0A0E0B0E0B701A6018C159D05AE053F
:104CA000BF0568F4481B590B6A0B7B0B40937301DB
:104CB00050937401609375017093760113C04C5E3C
:104CC0005F4F6F4F7F4F481759076A077B0710F4F4
:104CD0000E94A41310927301109274011092750136
:104CE0001092760114B98091730190917401A09192
:104CF0007501B09176014997A105B10508F420CF5F
:104D0000C12CD12C80911101882329F080911301AD
:104D1000853009F015CF88E08093130180918501DB
:104D2000909186019817C4F089130ACF809073017F
:104D300090907401A0907501B09076014091770138
:104D4000509178016091790170917A014815590567
:104D50006A057B0508F0F4CE40917301509174010F
:104D600060917501709176014093770150937801BD
:104D70006093790170937A0180938601D0928201C9
:104D8000C092810100938301C0938401D9CEC701F1
:104D9000C12CD12C20914B0130914C012C153D059B
:104DA00060F00E9446078C2F0E9494078A199B0985
:104DB000A8952FEFC21AD20AEDCF5701A81AB90A47
:104DC0001A141B049CF439ECA316B1040CF0B8CEF1
:104DD00028EE33E0D5010E94B13A97010F2C000C68
:104DE000440B550B0E945E3A690102C0C12CD12CC4
:104DF00080914B0190914C010196A0E0B0E080932E
:104E00007B0190937C01A0937D01B0937E01C7014B
:104E10008A0D9B1D0E945E0820917B0130917C01D0
:104E200040917D0150917E01DC010E94B73A609370
:104E30007B0170937C0180937D0190937E01609350
:104E4000730170937401809375019093760187EFDD
:104E50008093850121DD8090730190907401A09072
:104E60007501B09076018FE193E00E94DF3BA8EEE0
:104E7000B3E0A81BB10987FDB395A50194010E9479
:104E8000C13A24E630E040E050E00E945E3A2093D0
:104E9000730130937401409375015093760132CFC2
:104EA000CDB7DEB7ECE00C946E3B1F920F920FB6BD
:104EB0000F9211248F939F93B59904C08091700134
:104EC000811109C0B59B10C0809186009091870028
:104ED0008A3F910548F480914B0190914C010196D5
:104EE00090934C0180934B019F918F910F900FBE37
:104EF0000F901F9018951F920F920FB60F921124CA
:104F00008F939F9310927001B09B10C08091860088
:104F1000909187008A3F910548F480914B019091D0
:104F20004C01019690934C0180934B019F918F917E
:104F30000F900FBE0F901F901895A0E0B0E0E3EA2D
:104F4000F7E20C94523B88E893E190931801809328
:104F5000170190932A01809329018EEB80932501FC
:104F6000C8E0C8B988E187B90E945407C7B984E08E
:104F70000E949007AC018B5C9840833F9140A0F465
:104F800081E0809334012091290130912A01AFEB17
:104F9000B9E00E94A23A9A0140E050E00E945E3AD5
:104FA00030931801209317018091170190911801F7
:104FB00090932A01809329018EE00E9494078EE04D
:104FC0000E94900790932E0180932D010E94060865
:104FD000D3DB88E0F82EF8B8C9E0C7B985E185B918
:104FE000D1E0D4B980E00E9490078C019AE0D92EDC
:104FF000D7B824E0B22EB4B881E00E949007080F21
:10500000191F3CE0E32EE7B840E1C42EC4B882E0AB
:105010000E949007080F191F15B8C8B9C7B9D4B9AD
:1050200080E00E9490070E94F807EC01D8B8D7B83A
:10503000B4B881E00E9490070E94F807C80FD91FFA
:10504000E8B8E7B8C4B882E00E9490070E94F80769
:10505000C80FD91FF7B8F8B814B8209129013091BA
:105060002A016901CC0CDD1CC20ED31EC01AD10A64
:10507000CC1ADD0AE12CF12C9801A0E9BAE10E94DA
:10508000A23AA70196010E945E3A49015A01309363
:105090003301209332019E01A0E9BAE10E94A23AB5
:1050A000A70196010E945E3A30932C0120932B01B8
:1050B0002057354E309315012093140180E7881A4C
:1050C00085EE980A90920E0180920D0184E68093FD
:1050D0002501CDB7DEB7ECE00C946E3BCF92DF92AA
:1050E000EF92FF920F93CF93DF93F82EC62FD42F1A
:1050F0000E947B0C88E091E00E94890CF2D16C2F19
:105100008F2D0E945438C090BA01D090BB01E0901E
:10511000BC01F090BD018091190187FD05C0C1144B
:10512000D104E104F10421F084E091E00E94890CB3
:105130008C2F0E947B0CC114D104E104F10431F0E6
:105140000E945006809156010E949D06DD2351F079
:10515000809135018F3030F490E0805C9C4F0E944C
:10516000890C02C00E94090B80E00E942A0BCD2806
:10517000CE28CF28D9F06091BA017091BB018091FF
:10518000BC019091BD0103E028E447EF0E94CE0CE2
:1051900087E191E00E94890C83E593E00E94E73B60
:1051A00023E046E464EF0E94B70D1AC080915601D7
:1051B0000E949D06809119018E3F94F48FE291E048
:1051C0000E94890C6091A1017091A2018091A301BC
:1051D0009091A40103E028E4409119010E94CE0CB3
:1051E0008091B2019091B301A091B401B091B50149
:1051F000892B8A2B8B2BF1F080E00E942A0B609187
:10520000B2017091B3018091B4019091B50104E0B5
:1052100028E440E00E94CE0C82E191E00E94890CDB
:1052200023E040E26FEF8091B8019091B9010E94B4
:10523000B70D07C080E00E940F0B809138018111EB
:1052400002C00E94090BDF91CF910F91FF90EF9068
:10525000DF90CF900895EF92FF920F931F93CF931B
:10526000DF93182F0E949B0A809183010E947B0C80
:105270008BE491E00E94890C6CD360918301809152
:1052800084010E94C108EC019093800180937F010A
:10529000E0908101F0908201CA3F8FEFD80720F49F
:1052A00089E091E00E94890C809184010E947B0C2E
:1052B000112359F0909135018FE0891B0E94660AF5
:1052C00089E690E00E94890C02C00E94090B0E94AE
:1052D000F10A609177017091780180917901909144
:1052E0007A0104E026E4409186010E94CE0CCA3F78
:1052F000DF4F68F48AE391E00E94890C22E04DE1DF
:105300006EEF80917F01909180010E94B70D0E9405
:10531000090B0E94F90AE114F10469F083E391E0BA
:105320000E94890C22E045E26FEF8091810190910B
:1053300082010E94B70D0E94090BCDB7DEB7E6E0EF
:105340000C94743B8F7021F40E94010B0C94DC19B7
:1053500008958F3021F490912F01913011F08F5FDB
:10536000089580E00895CF9384E790E06ED76AE0D7
:1053700080E00E946F0A8AE493E00E94890CC0E0FA
:105380000E94760F60E082E00E948D2162E080E062
:105390000E948D210E949B0A80916F01882329F031
:1053A00041E062E080E09ADE12C084E790E00E9473
:1053B000890C8AE493E00E94890C0E94F10A8FE331
:1053C0000E94090C80E00E940F0B0E94090B8C2F99
:1053D000B9DF88EE93E00E94F10E811105C08C2F99
:1053E000B8DFC82F8A3F60F20E94A20ACF910895C9
:1053F0000F931F93CF93DF93C0E0D8E012EF0FE03D
:105400000E94760F60E082E087DAD09313018091EA
:105410008501843FE1F48091730190917401A09122
:105420007501B091760184369105A105B10578F436
:1054300040E060E082E00E94E33560937301709386
:10544000740180937501909376011093850180918A
:105450008501823FACF08093860180917301909129
:105460007401A0917501B0917601809377019093BA
:105470007801A0937901B0937A0181E0ECDE1CC041
:105480000E949B0A8DE690E00E94890C8091350174
:10549000902F981B892F0E94660A89E690E00E944F
:1054A000890C0E94F10A8FE30E94090C0E94090BEB
:1054B0000E94F90A0E94090B8C2F44DF88EE93E0CA
:1054C0000E94F10E811106C08C2F43DFC82F8A3F46
:1054D00008F496CF0E94A20ADF91CF911F910F91FD
:1054E0000895A4E1B0E0E7E7FAE20C944C3B82E0D7
:1054F0008093190180911301813009F026C28091B7
:105500006F01813009F021C20091560124E0029F11
:10551000F0011124EA55FE4F80819181A281B3816F
:10552000893032E59307A105B10508F00EC24C01A0
:1055300010E0802F123028F40E949306582E492E36
:1055400003C00E9493062C01E42DF0E0EC57FD4FC0
:105550002490852D90E0FC01EF57FD4FE49115B8A4
:1055600028E028B930EF83169104B8F410FD15C077
:10557000A0900D01B0900E0120E9A21A2AE1B20A12
:1055800021E030E0052C02C0220F331F0A94E2F71D
:10559000C9018860822987B908C0E4B9822D886072
:1055A00087B9A0900D01B0900E01F4E13F2E852D3A
:1055B0000E948C073C01842D0E94940734E06316FE
:1055C000710410F4049718F03A943110F0CF80E48D
:1055D00080937B0094E590BF852D806480937C0050
:1055E00026E120937A00E12CF12C10928000109299
:1055F00085001092840087E286BB0E944F07312FFE
:105600003170332E10FD05C081E88093810028B8E9
:1056100008C028B80E94580780E286BB81E88093C2
:10562000810086B385FF13C098E098B9109281007D
:1056300020E226BB209186003091870069014091CD
:105640008400509185002417350770F014C080FF46
:10565000E8CF31E036BBA89597012F5F3F4F790126
:1056600020353105F1F6E0CF80FF05C081E086BB33
:105670009FEFE91AF90A86E980937A00E4E12E2E79
:10568000852D0E948C073C01842D0E94940724E004
:105690006216710410F4049718F02A942110F0CFC8
:1056A0004090320150903301480C591C4A0C5B1C4D
:1056B00020910F013091100180E9A8168AE1B80607
:1056C000B0F491EEC916D104E104F10438F4C60136
:1056D00065E070E00E94373A645101C069E12852E8
:1056E0003109261B310967FD339586E009C0C201E7
:1056F00060EB76E30E94373A87E0860F285D3F4FE4
:1057000090E0A0E0B0E08C159D05AE05BF0528F443
:10571000C81AD90AEA0AFB0A03C0C12CD12C7601A7
:10572000332029F082E2C80ED11CE11CF11C90E567
:10573000E916F10418F0C12CD12C76018BE0C816C3
:10574000D104E104F10428F091E0C91AD108E1087C
:10575000F1084091290150912A01612C712CA8EE89
:10576000B3E00E94A23A698B7A8B8B8B9C8B95015C
:10577000DA010E94A23AA30192010E945E3A4427F4
:10578000552769897A898B899C890E945E3AC9016B
:105790000E949D08FC01A3019201C701B6010E946D
:1057A0001C3A2B013C01CF01A0E0B0E073E0880F70
:1057B000991FAA1FBB1F7A95D1F7BC01CD016B5F62
:1057C0007F4F8F4F9F4F2AE030E040E050E00E9433
:1057D0005E3AC301B2010E945E3AE12FF0E0A1E01F
:1057E000B0E0AC0FBD1F84E0189FA00DB11D1124C7
:1057F0002D933D934D935C931397311016C09CE00D
:10580000C916D104E104F10480F03196EE0FFF1FB8
:10581000EE0FFF1F81E090E08C0F9D1FE80FF91F36
:1058200020833183428353831F5FA8951F5F143009
:1058300008F47FCE88E088B984E00E945C0791E09C
:105840000D811E812F81388549815A816B817C8130
:10585000401751076207730708F090E00D851E8519
:105860002F85388949855A856B857C854017510776
:105870006207730710F483E001C082E0E92FF0E0D3
:10588000EE0FFF1FEE0FFF1F21E030E02C0F3D1F3A
:10589000E20FF31FD90134E0839FA00DB11D112445
:1058A0000D911D912D913C914081518162817381B7
:1058B000041715072607370708F0892FE1E0F0E005
:1058C000EC0FFD1F94E0899FE00DF11D1124408134
:1058D0005181628173814093A1015093A201609331
:1058E000A3017093A40180FD08C020EF82169104EB
:1058F00020F48BEF8093190117C08CEF809319016E
:10590000CB01BA016B5F7F4F8F4F9F4F2AE030E092
:1059100040E050E00E945E3A2093A1013093A20142
:105920004093A3015093A4018091A1019091A20101
:10593000A091A301B091A401892B8A2B8B2B11F488
:105940001092190188E087B914B86496E2E10C94CA
:10595000683BA0E0B0E0EFEAFCE20C94523B80919F
:10596000810190918201892B09F09EC0E091830111
:10597000F0E0EC57FD4FD491D860E0918401F0E065
:10598000EF57FD4FC4910E94BC2388E088B915B839
:10599000D7B9C4B9809184010E9494078C01D09139
:1059A00086018CE08D0F843008F07EC080917701F5
:1059B00090917801A0917901B0917A01D15F2AE0AC
:1059C000822E912CA12CB12CBC01CD016B5F7F4F9D
:1059D0008F4F9F4FA50194010E945E3A69017A01A1
:1059E000DA01C901DF5FD73079F729E8C21623E170
:1059F000D206E104F10408F057C0059708F454C03A
:105A0000C5B9C4B9C0E0D0E0CC15DD0520F40E94D2
:105A100056072296F9CF14B815B8A89585E080935B
:105A20002501809184010E9494070817190720F42A
:105A3000EC01C01BD10B02C0C0E0D0E0A12CB12C06
:105A4000AC14BD0430F40E9456078FEFA81AB80AB0
:105A5000F7CF809184010E94940724E620932501CA
:105A6000A8950817190718F4801B910B02C080E055
:105A700090E08C179D0788F49E01281B390B69F074
:105A8000A4EFB1E00E94A23A9E0140E050E00E94E3
:105A90005E3A30938201209381010E94BC2388E00A
:105AA00087B988B914B815B8CDB7DEB7ECE00C9457
:105AB0006E3B8C3008F08C50811103C083E292E081
:105AC00036C0813019F487EB91E031C0823019F48F
:105AD0008AEF91E02CC0833019F48FEE91E027C05B
