:10000000BDC50000CDC50000CBC50000C9C50000BE
:10001000C7C500000C94B334C3C500000C94E10FB5
:10002000BFC50000BDC500000C9491270C94973407
:100030000C94A5340C946B27B3C50000B1C5000027
:100040000C947134ADC50000ABC50000A9C500001B
:10005000A7C500000C94E20FA3C50000A1C50000D5
:100060009FC500009DC50000E62FF72F903009F4D2
:100070009395E5B8C4B8B6EFB0937A00A5E0A09325
:100080007B00A8E0A093810010928000AFEFA093C6
:100090008500A0938400A6E0A093360010928B0008
:1000A00010928A00B3E0AFE3A91B51E0392F33303F
:1000B0002AF0A05CBC4F53953350F9CFB093890020
:1000C000A0938800A0917A00A4FFFCCFB6EBB09378
:1000D0007A00A2E0A0936F00A9E0A093810062E003
:1000E000A0E0A0937B00A1E0A09353008895E5B821
:1000F000C4B884FF1AC0A8E10000AA95F1F7EF93F5
:10010000FF93E7B1F8B1A4E0C2FCA2E0C0FCA1E01B
:10011000BF2FBA2BAE2BB8B904B9A7B9E7B9F8B954
:10012000FF91EF910BC00C947300ACE10000000054
:10013000AA95F1F725B9E5B8000004B9A0918400AB
:10014000A0918500B0918900A395AB1760F7A091AD
:100150007A00A4FFF3CFB6EBB0937A006A9571F7FB
:100160006091780070917900308186FD630F619312
:10017000308186FD731F80FF7193652F4A9579F753
:1001800010926F0010928100B6E0B0937A0008954B
:10019000C401BD01B60118000720080808F80000D6
:1001A000002060A03FA06020020202FF02020210B5
:1001B00010101F000000050842818989760508C2D9
:1001C000A19189860508000402FF0010100508F8B7
:1001D00078385888091003081C3E7F0D080710FF67
:1001E000818181F1E1C1FF4040404743410D080159
:1001F00010FFFF11080310F1E1C14743410E000851
:10020000202121122060E0E0E0FEFE040201000156
:10021000037F7F21C2C4C4C040948400070301024D
:10022000040E080210FEFE7F7F0000000011000592
:10023000202060E0E0E00201000103C2C4C4C0402D
:1002400007030102040104100102044E6F742063CD
:10025000616C696272617465642100B90387035837
:10026000032E030703E402C302A402880200001461
:100270000029003E005300690080009700AE00C6D0
:1002800000DF00F80012012D01490165018201A083
:1002900001BE01DE01FF012102440268028E02B5A7
:1002A00002DE020903350364039403C803FE033727
:1002B000047304B404F90443059305EA054906B33D
:1002C000062907AE074808FF08DE09FD0A930C4817
:1002D0000F991B000000000000000000000000005B
:1002E0000000001E2121211200807F0000007E4AB4
:1002F0004A4A34000000000000FC402010080402BC
:1003000001000000010101010101010101010101E0
:10031000017F0488D0E0F0F8000000000000000039
:1003200000000000000000000000FC949484000025
:100330000102FC0000000000000000000000001EA0
:1003400021212112E0C0804020100F000000C020B9
:10035000202040000000FC00009E9E0403030303D5
:1003600002000000202023242525232020203F00F8
:10037000007B7B2142840480C0000000000000005C
:1003800000000000000000FC9494840004060707AD
:100390000708F0000000000000000000000000005E
:1003A000803F2121120C00000000FF000000F00837
:1003B0004848C80000FE0000E7818181C1E1F18169
:1003C000818101002020202121212020203F0000C8
:1003D000F340404041434740407FC00000000000E0
:1003E00000000000000000000048949494640000A5
:1003F0000000FF00000000000000000000000000FE
:100400000000003F2121120C0000FF000000F00856
:100410004848D0000000000000FEFE04040404046C
:100420000404070008080809090908087F3E1C0899
:10043000087F7F20202020202020E00000000000F6
:100440000000000000000000000000489494946444
:100450000000FF0000000000000000000000FF009E
:100460003C0A090A3C002231292926000082868E96
:100470009EBEFEFEBEDEEFF6FAFEFEFAF2E2C2829B
:1004800000000008080804027984A4A46800FF00A2
:10049000000000000000000000000000000000005C
:1004A000000000000000FF0000F0282428F00010E9
:1004B00008FC0000000000000000000000003C0AF2
:1004C000090A3C00FF0000000000000000000000DE
:1004D00000000000000000040C1C3C7CFF7C3C1C65
:1004E0000C040000000000009EA1A9A99A804323EB
:1004F000130B0703FF0303030303030000000000C3
:10050000000000000000788484844800FF000000A0
:10051000000000000000F00804E2110909090909BF
:10052000090909091121C2040810E00000000102B4
:1005300004040700000000008040201088442310BD
:100540000804030000000000000000000000FE019D
:1005500000FC02010000000000000000000000009C
:100560000000000000007949497900000000000007
:1005700000000000F00804844830403F00081011DB
:100580000EE01008080810E019121C001C1219E0F7
:1005900000000000E0007F080808040F0000000CC5
:1005A00012120C000000000000000000000000001B
:1005B0000000000000000000000000FE000000003D
:1005C0000000370000000000160E00160E000000AC
:1005D00000000000000020F82020F82000020F0298
:1005E000020F02102844FE8408100304081F0805A7
:1005F00002182424984020100402010C12120C103E
:10060000A844A81000000304080805020500160EFF
:1006100000000000000000000000000000E01C02DC
:1006200000000000010E100000000000021CE000AD
:10063000000000100E010090A0C0F8C0A0900402BD
:10064000010F010204808080F0808080000000079C
:10065000000000000000000000000058380000000A
:10066000008080808080808000000000000000000A
:10067000000000000000001818000000000000004A
:10068000804020180C020100000000F80482422281
:1006900014F80709101010080710080402FE0000E3
:1006A000000000001F0000180402028244381814E1
:1006B00012111010101804424242A418060810101B
:1006C00010080700C0300C02FE0003020202021FE5
:1006D000027E42222222428204081010100807F8EB
:1006E00044222222448807081010100807020282C0
:1006F0004222120E001F000000000018A4424242D5
:10070000A41807081010100807384482828244F8A1
:10071000040810101008070000303000000000002E
:100720000606000000000030300000000000160E39
:1007300000000000804020100804000001020408AE
:10074000100040404040404000020202020202000D
:100750000408102040800010080402010018040260
:100760000202847800000036010000F80884444446
:1007700048F00708111212120BE01008040810E0EC
:100780001F01010101011FFE42424242A4181F1035
:100790001010100807F804020202041807081010CD
:1007A000100806FE0202020204F81F1010101008C2
:1007B00007FE4242424242021F101010101010FE6B
:1007C0004242424242021F000000000000F80402C0
:1007D0004242448807081010100807FE404040407D
:1007E00040FE1F00000000001F000002FE0200008B
:1007F0000000101F10000000000002FE02000C109C
:1008000010100F0000FEC020100804021F0001029B
:10081000040810FE0000000000001F10101010104F
:1008200010FE0418601804FE1F00000000001FFEE8
:100830001820C00000FE1F00000001061FF804027F
:10084000020204F807081010100807FE8282828254
:1008500044381F000000000000F80402020204F8FF
:1008600007081010120C0FFE8282828244381F008B
:10087000010204081018244242428408060810109D
:10088000100807020202FE0202020000001F000020
:1008900000FE0000000000FE07081010100807FE10
:1008A0000000000000FE00030C100C0300FE00001E
:1008B000C00000FE0F10100F10100F0E1020C020EF
:1008C000100E1C02010001021C1E20408040201E50
:1008D0000000001F0000000202824222120E1E11C0
:1008E000101010101000FE0202020200003F202033
:1008F00020200018204080000000000000010204B9
:10090000180002020202FE0000202020203F0010FA
:1009100008040204081000000000000000000000AD
:1009200000000000202020202020200000020408D9
:10093000000000000000000000002090909020C007
:100940000609101010091FFE4020202040801F08BB
:100950001010100807C020101010204007081010B9
:10096000100804804020202040FE070810101008C6
:100970001FC02010101020C00709111111090440D8
:10098000F84442020408001F0000000000C02010CC
:10099000101020F00122444444221FFE4020202059
:1009A00040801F00000000001F000000E800000061
:1009B0000000001F1000000000000000E8000030F0
:1009C0004040403F00FE0000804020101F01010217
:1009D00004081000000002FE0000000000101F10BC
:1009E00000F02010E01010E01F00001F00001FF0BA
:1009F0002010101020C01F00000000001FC0201099
:100A0000101020C007081010100807E01010101078
:100A100020C07F040808080403C02010101010E054
:100A20000304080808047FF02010101020401F0065
:100A3000000000000040A010101010200408111148
:100A40001109062020FE2020000000000F10100CCD
:100A500000F00000000000F00708101010081FE070
:100A60000000000000E001060810080601E0000098
:100A7000000000E00F10100E10100F3040800080BA
:100A8000403018040201020418F00000000000F0D9
:100A90002142444444221F1010101090503018146A
:100AA00012111010108040380402020000010E10D4
:100AB000202000000000FE0000000000003F0000B9
:100AC0000000020204384080002020100E010008BF
:100AD000040204080402000000000000008040201E
:100AE000102040800704040404040740F010101094
:100AF00010F040000101010101010040FCF8F0E0AC
:100B000040FC40000703010000070040FC40E0F00B
:100B1000F8FC40000700000103070040FCFC000057
:100B2000FCFC400007070000070700F80808080859
:100B30000808080302020202020202080808080864
:100B40000808F8020202020202020340404040404C
:100B50004040400000000000000000C00000800095
:100B600000008007080B040B080B04000000800045
:100B700000C0400B080B040B0807000011241FBE27
:100B8000CFEFD8E0DEBFCDBF21E0A0E0B1E001C0F3
:100B90001D92AC3CB207E1F70E9488140C94A93D69
:100BA0002FCA5D98559A80FD599A80FF5998519A9D
:100BB000539A5A9867FD5B9A67FF5B985A9A5A98BE
:100BC00066FD5B9A66FF5B985A9A5A9865FD5B9A38
:100BD00065FF5B985A9A5A9864FD5B9A64FF5B982C
:100BE0005A9A5A9863FD5B9A63FF5B985A9A5A988F
:100BF00062FD5B9A62FF5B985A9A5A9861FD5B9A14
:100C000061FF5B985A9A5A9860FD5B9A60FF5B9807
:100C10005A9A5D9A5A985B98089597FF09C08F93E6
:100C20009F938DE219D69F918F91909581959F4FBB
:100C300064E271E04AE050E00E94483D64C60895D5
:100C4000ECDF01C0EADF80E207C68DE205C68DE376
:100C500003C6EF92FF920F931F93182F062FF42EC7
:100C60008DE791E068D6EE24E0913F01F0914001DC
:100C70008685E81611F4812F09C08485E81611F4E1
:100C8000802F04C08585E81611F48F2DE5D5E394F7
:100C90008E2D833049F71F910F91FF90EF900895AB
:100CA000EF92FF920F931F93182F062FF42E80E0E0
:100CB000C6D4C9DF83E891E03ED64F2D602F812F47
:100CC000C8DF1F910F91FF90EF900895682F80E08B
:100CD00092E0662309F491E0623009F481E008951E
:100CE0000F93082FE4EBF1E0880F880FE80FF11D58
:100CF00060817181828193816436710581059105DE
:100D000068F42091220127FD09C0802FDFDF692FC1
:100D1000F8D16EEF23E04DE13CD704C04FEF04E083
:100D20002DE14ED690DF0F910895863058F4E3EA16
:100D3000F1E0E80FF11DE80FF11D8081918163E082
:100D400033D781CF08951F93182F80917A0188237C
:100D500019F079DF80E080D595D384E791E0EBD579
:100D6000812F82958F70E1DF812F8F70DEDF1F91E1
:100D700008958091060182958F7019D080910601A7
:100D800083701CD080910601DECF0895E7E9F1E081
:100D9000E80FF11D0895CF93F9DF9081C681C9173F
:100DA00010F405D001C013D04EDFCF910895EEDFCF
:100DB0008F938081A5D58F9101C008958F938CE387
:100DC00091E0B9D58F91E2DF86819AC50895DEDF83
:100DD0008F93868195D58F9101C008958F9388E375
:100DE00091E0A9D58F91D2DF80818AC5089503D083
:100DF00002D001D000D000D003D002D001D000D06A
:100E000000D003D002D001D000D000D0A89503D0EC
:100E100002D001D000D000D003D002D001D000D049
:100E200000D003D002D001D000D000D003D002D037
:100E300001D000D00000089590E0893C28F0885C43
:100E400048EC849FC0011124009709F40895209173
:100E50008100277019F0DADF0197F6CF8130910514
:100E600019F002973EE303C037E180E090E0209163
:100E7000B200230F2093B30042E04093700027E0BC
:100E800023BF889526E023BF10927000A895DCCF81
:100E90008F9384E0D1DF07C08F9382E0CDDF03C062
:100EA0008F9381E0C9DF8F911F93182F10641093E7
:100EB0007C00E12FE07880912F01E81759F0E09352
:100EC0002F01AEDF8EE980937A0083E083BF88959F
:100ED00082E083BF20E030E0A901E0E01FC08EE99E
:100EE00080937A0083E083BF889582E083BF60911E
:100EF000780070917900260F371F411D511DE43095
:100F000061F480913101803041F084E02030380775
:100F100020F417FD02C01068CACFEF5F80912E0148
:100F2000E817E8F2609132017091330117FF04C0B5
:100F3000609130017091310180E090E00E94BE3BF1
:100F40002FEF33E040E050E00E94003CB901CA01BD
:100F500020912E0130E040E050E00E94003CC901A9
:100F60001F9108959B01281B390B50F0C90108956A
:100F7000BC0180913201909133016817790718F410
:100F8000861B970B089580E090E0089588E593E034
:100F90000E947B3D382F89E593E00E947B3D2091A4
:100FA0003601230F30913701381F209316013093FB
:100FB000170183E0283E380720F0C901885E93407E
:100FC00002C080E090E062E370E00E94D93B6830AC
:100FD00008F067E0EBE5F2E0E60FF11DE60FF11D2A
:100FE000459155912591359162E3681B421B530B46
:100FF000649FC001659F900D1124499662E370E0E3
:101000000E94D93B620F731F70937E0160937D0134
:101010008AE593E00E947B3D992787FD909560913A
:10102000360170913701860F971F9093310180939D
:101030003001909379018093780108950F9221E017
:101040008C32920710F48CE291E08C52914069E16D
:1010500070E00E94D93B99E16B3210F0982F6BE25F
:10106000981BE2EDF2E0E60FF11DE60FF11D9F93F4
:10107000CF010E947B3D482F3196CF010E947B3DDE
:10108000582F3196CF010E947B3D282F3196CF01FA
:101090000E947B3D382F6F91421B530B649FC00110
:1010A000659F900D11240C9669E170E00E94D93B78
:1010B000620F731FCB010F900895CF93DF9324E14C
:1010C00030E0B9010E94D93BDC01EDE6F2E0E60F29
:1010D000F71FE60FF71FC591D591459155914C1B10
:1010E0005D0B4A9FC0014B9F900D5A9F900D11249C
:1010F000B9010E94D93B6C0F7D1FCB01DF91CF91CD
:101100000895AEE1B0E0E7E8F8E00C94E83C662E24
:10111000B82E860F898320911A01283059F5209125
:10112000830130918401409185015091860157FDE2
:1011300015C01091920109C0CA01B9012AE0312DF0
:10114000412D512D0E94003C1F5F173FACF391F4DD
:10115000243160E036074105510518F48FEF9FEF09
:1011600042C1173F39F480E028178DE73807410561
:10117000410510F020E03DE72C8B3D8B26EDA22EA3
:10118000E8E4F2E0E60DF11D859180608E87E8E4E9
:10119000F2E0EB0DF11D859180608F87E5E4F2E0D0
:1011A000E60DF11D7590E5E4F2E0EB0DF11DC59043
:1011B00090EC692AB92A81E0E82EF12C012D112D3D
:1011C0008E831F82188619861A861B861C861D86AA
:1011D000188E198E1B8E1A8E0E94C52380E088B946
:1011E00060927C001DDE3F8537B975B874B852E057
:1011F0005A95F1F70000000014B815B8DD243E85BB
:1012000037B975B874B860927C00A895A0927A003E
:1012100080917A0086FDFCCF209078003090790094
:10122000B0927C004C2DE3D0209178003091790071
:10123000288B398B3F8537B9C5B8C4B8A895B0920B
:101240007C00A0927A0080917A0086FDFCCF6091AC
:1012500078007091790060927C00472DC8D0409151
:1012600078005091790014B8CB01820D931DE80EDF
:10127000F91E011D111DEA82FB820C831D838889E2
:101280009989840F951F2E813F8168857985280F64
:10129000391F611D711D2E833F836887798722E383
:1012A0002417150648F075B874B8C4DD14B815B81D
:1012B000888D8395888F07C0483E73E0570718F0E4
:1012C0008A8D83958A8F888999892817190658F0FD
:1012D0003E8537B9C5B8C4B8ADDD14B815B8898D29
:1012E0008395898F07C0883E73E0970718F08B8D30
:1012F00083958B8FD3945D2D5F3F49F05F3731F439
:101300005C2D550FC50E572D550F750E78CF40909B
:101310003B0150903C01440C551C9201E4E0240D2B
:10132000351DEA95E1F72901570168016E807F803C
:101330008884998420911A012830C1F46C897D89B0
:10134000812D912D65507040804090409B01AC01F3
:101350000E94BE3B9B01AC0160E779E786E190E02B
:101360000E94003C621A730A840A950AA614B70404
:10137000C804D90428F46A187B088C089D0803C0A7
:10138000662477244301B20180E090E09301A40138
:101390000E94BE3B9501A6010E94003C80E393E0C1
:1013A0007981870F911D0E947B3D682EC90160E104
:1013B00070E00E94D93B260F371FC9016816190635
:1013C00018F4861991090FC08C5E9F4F8615910500
:1013D00040F48C899D89843981E1980710F00E943E
:1013E0002F14812D912D6E96E2E10C94043D109204
:1013F00081001092800010926F0010928B0010926A
:101400008A0057E056BB5FEF5093850050938400ED
:1014100055E050937B0056EB50937A0051E0509387
:10142000810058E25A95F1F7000045B944B955E0FA
:101430005A95F1F7000014B815B810928100809108
:101440007A0084FFFCCF80937A000895CF93C82F51
:101450001C161CF4F8DBC150FBCFCF9108956093AC
:101460003E018093030186958093B301660F660F5A
:10147000660F6093040108951092B30160E080E06C
:10148000EECF089581E08093B30160E082E0E7CF82
:10149000089582E08093B30160E084E0E0CF089596
:1014A00083E08093B30160E086E0D9CF0895809116
:1014B0003E01809301018091B30180930201089560
:1014C0008091020160910101880FC9CF0895CF93E7
:1014D000C82F692F81E065DB6C2F81E062DBCF9143
:1014E0000895682F80E05DCB0895CF93DF938AE263
:1014F000F8DF80E090E0EBDF80EA90E0E8DF8BE26D
:10150000F0DF80E090E0E3DF80E890E0E0DF8CE275
:10151000E8DFC0E0A895D0EA80911B0190911C0102
:10152000D6DFD150C9F7CF5FC038A1F7A5DFDF9173
:10153000CF910895CF93DF9358985A985B985D9810
:10154000509A529A539A559A70DC5D9A559A5998C6
:10155000519A84E171DC589A84E16EDC8AE06CDC9B
:1015600081E1BFDF84E068DC86E2BBDF64E081E02C
:1015700018DB81EBB6DF6EE081E013DB64E181E034
:1015800010DB80ECAEDF80E09EE0A1DF81ECA9DF24
:1015900065E081E006DB85ECA4DF80E498E397DF7B
:1015A0008AE39FDF65E081E0FCDA86E39ADF8FE281
:1015B00093E00E947B3DCBE1D1E088838EE293E013
:1015C0000E947B3D89838DE293E00E947B3DC5E9CB
:1015D000D1E088838CE293E00E947B3D89836CE3B9
:1015E00081E0DFDA84EB7DDF60E081E0DADA7DDF65
:1015F00089E277DF8AE020DCDF91CF910895909136
:101600003E0184E1891B22CF0895CF93C82FF7DFD5
:101610008091B3018F5F8093B301883038F087E009
:101620008093B30181E08093410102C01092410197
:101630008091B3016C2F880F12DFCF910895E5DF01
:1016400097C4089519DFDBDF17CF08951BDFD7DFBD
:1016500019CF0895582F28E030E090E841E080E06D
:10166000652F642309F0892B440F96952150310989
:10167000B9F70895A4E0B0E0E0E4FBE00C94E83CA6
:101680009C838B83F42E10E0A62EB12CC501800F15
:10169000911F813A91050CF090C08E2D90E0AC0125
:1016A0004F0D511D413851050CF087C0EA94EF0CE5
:1016B000E7FE02C06FE7E62E322F3270398321FF3A
:1016C00013C0019753E0959587955A95E1F7809F50
:1016D000A001819F500D909F500D11248B819C8102
:1016E000840F951F9C838B8321702A83380191E09E
:1016F000691A7108EF1408F460C0C12CD12C8F2D29
:1017000090E027E7222E312C281A390A3EE7432E93
:10171000512C481A590AC016D10609F43DC08BE273
:10172000E0DEC101D4DEC201D2DE8AE2DADE4501AA
:101730008C0C9D1CC401CBDEC401C9DE8CE2D1DE61
:101740003A81332341F0F301EC19FD098B819C812F
:10175000E80FF91F04C0EB81FC81EC0DFD1D949096
:101760009981992319F0892D75DF982E48E0842EF0
:1017700097FE05C080915C0190915D0104C080914D
:101780001B0190911C01A3DE990C8A948110F0CF6B
:101790003FEFC31AD30ABFCF8981882329F08B81F9
:1017A0009C81801B910B04C08B819C81800F911FB9
:1017B0009C838B8398E0F90E9DCF2496E2E10C94F4
:1017C000043DEF920F93482F8FEF93E090935D01CC
:1017D00080935C01242F2F7380E6289F90011124B1
:1017E000C9018D529D4F46FF02C028E001C028E587
:1017F0002093050147FF03C01092000108C020E2BA
:1018000020930001209105012D5D2093050120E228
:10181000E22E08E120E040910001609105012ADFFD
:101820000F91EF900895EF920F93262FFC01649192
:1018300031964491319604913196E49030910001B3
:10184000430F30910501630F049614DF0F91EF9061
:10185000089560E0E8CF0895EF920F9320919501ED
:101860003091960130935D0120935C0190913E018F
:101870009F5F90933E0140910301282F30E0440F79
:10188000440F440F8C3098F4C90134E0880F991F3D
:101890003A95E1F750E1E52E08E020E0609104017F
:1018A0008551954FE7DE80910401885F23C02C515C
:1018B00031095EE0529FC001539F900D112420E139
:1018C000E22E07E020E0609104018D589A4FD2DEAD
:1018D00060910401695F6093040140910301440F2A
:1018E000440F440F01E020E08BEA95E0C3DE8091D5
:1018F00004018F5F80930401A8950F91EF900895E4
:101900008F5CAACF0895CF93DF93EC018991882350
:1019100011F0A2DFFBCFDF91CF910895CF93DF933A
:10192000EC01FE018491882319F096DF2196F9CF0E
:10193000DF91CF910895CF93DF93EC01CE010E9408
:101940007B3D882319F088DF2196F8CFDF91CF9176
:101950000895EF920F93FC0104913196E490029662
:1019600089DE0F91EF9008950F938BE991E0E3DF0B
:10197000409191014D3F64F460917F01709180012D
:10198000809181019091820103E026E419D002C088
:101990008FE362DF0F910895909119019F7092304B
:1019A00071F44DDE84E690E0C6DFE0913F01F091F6
:1019B000400122E04DE16FEF84819581EAC00895F6
:1019C000AEE0B0E0E6EEFCE00C94E83C142F622EB2
:1019D000702E6B017C010F7080E389838A838B8377
:1019E0008C838D838E83F7FE0AC02FD9F094E09408
:1019F000D094C094C11CD11CE11CF11C04C075FE24
:101A000002C08BE229DF033071F0043099F0053019
:101A1000C1F00630F1F0073021F174E6872E912CE9
:101A2000A12CB12C25C068EE862E63E0962EA12C49
:101A3000B12C1EC050E1852E57E2952EA12CB12C61
:101A400017C040EA842E46E8942EAA24A394B12C11
:101A50000FC030E4832E32E4932E3FE0A32EB12C4E
:101A600007C020E8822E26E9922E28E9A22EB12C6A
:101A70009AE0292E312C412C512CC814D904EA04A7
:101A8000FB0470F0C701B6016B5F7F4F8F4F9F4F14
:101A9000A20191010E94003C69017A011F5FEDCF14
:101AA00081E1810F9BEA899F812D1124A82EA694A4
:101AB00086E0811B899F112D11241695912F990F76
:101AC000190F811B182F4E0187E0880E911C2AE008
:101AD000A401C701B6010E94273DF4010190002036
:101AE000E9F731977F01E818F9089E2C6701DD249A
:101AF000812F90E004968C159D0514F4A3941D5F2E
:101B00008A2D90E0845D9F4F0E947B3DA82E74FE3D
:101B100004C0901610F40E1901C000E08E2C811A3A
:101B2000800E181424F08EE297DE012F0E19111189
:101B300002C088EF882E912C10E0C00ED11EE82C38
:101B4000082C000CFF08892D90E08C159D05ACF445
:101B5000FC013696E01BF10B81E090E08C0F9D1F9D
:101B6000E80FF91F808178DE9394892D90E08E151F
:101B70009F0549F78EE270DEE6CFAA2011F08A2D8C
:101B80006BDE662011F0862D67DE2E96E2E10C9466
:101B9000043D0F93362FBC0180E090E0022F242FEC
:101BA000432F0EDF0F9108950F93062FBC0180E0A5
:101BB00090E026E54DEF04DF0F9108950F93042F79
:101BC00028E440E0FDDE8AE747DE3DD80F91089526
:101BD000E82FF0E0EE0FFF1FE057FE4FA591B49104
:101BE00090910001490F90910501690F20E0CD010E
:101BF000B0CE0895CF93DF93C82FD62FE0913F0149
:101C0000F091400148E16EE18685E2DFE0913F011D
:101C1000F09140014D2F6C2F8485DADFE0913F0178
:101C2000F091400140E06EE18585D2DFDF91CF91F8
:101C300008951F93CF93DF9358DC80ECC2DD62E000
:101C400086E991E0F0DD80E8BCDD8BEC91E001DE1F
:101C500060E085E004DC80E991E06DDE6AE085E02B
:101C6000FEDB88E891E067DE88E99AE318D13DDC85
:101C700083E4A7DD83E0A5DD84ED91E0EADD61E0AA
:101C800082E0EDDB8EE4E8DD0E9425068AEA91E041
:101C900052DE6BE082E0E3DB80E5DEDD0E942506BC
:101CA0008AEA91E048DE88E99AE3F9D01EDC81EC0B
:101CB00088DD81E886DD8DE292E0CBDD60E085E0C5
:101CC000CEDB8EE4C9DD0E94250685E4C5DD84EA0D
:101CD00091E031DE6AE086E0C2DB80E5BDDD0E9496
:101CE000250685E4B9DD84EA91E025DE88E99AE3FA
:101CF000D6D0FBDB81E465DD81E292E0AADD81E004
:101D000060DD8DEF91E0A5DD60E081E0A8DB8EE491
:101D1000A3DD0E94250684E49FDD84EA91E00BDECA
:101D20006AE082E09CDB80E597DD0E94250684E482
:101D300093DD84EA91E0FFDD88E99AE3B0D0D5DB5A
:101D400082EC3FDD82E83DDD83EF91E082DD60E003
:101D500085E085DB8EE480DD0E94250685E47CDD60
:101D60008FEA91E0E8DD6AE086E079DB80E574DD0A
:101D70000E94250685E470DD8FEA91E0DCDD88E9CC
:101D80009AE38DD0B2DB82E41CDD8DEE91E061DD63
:101D900082E017DD8BED91E05CDD61E081E05FDBEF
:101DA0008EE45ADD0E94250684E456DD8FEA91E038
:101DB000C2DD6BE082E053DB80E54EDD0E9425064C
:101DC00084E44ADD8FEA91E0B6DDC0E014E18C2FB7
:101DD000612F0E94CD3BD82F91110AC0811104C000
:101DE00088E99AE35CD081DB60E08D2F880F37DBD8
:101DF0008CE18C0F31DDCF5FC43649F788E99AE377
:101E00004ED073DBDF91CF911F91089599B193FB71
:101E1000992790F94999926080911101843050F08E
:101E20008EE080930D0190930E011092120181E0DB
:101E30008093110180911101E82FF0E0E35FFE4FE4
:101E40003081931729F191111AC0E3E0E80FE37094
:101E500020911201323041F4F0E0E35FFE4F308117
:101E6000333069F42F5F09C0313049F4F0E0E35FAB
:101E7000FE4F3081333019F4215020931201E1E0FC
:101E8000E80FE370E0931101F0E0E35FFE4F908311
:101E90008091120187FD8195809313010895A0E040
:101EA000B0E0E5E5FFE00C94F13CE82ED92E539824
:101EB00051980E940B0710921201E0911101F0E07D
:101EC0003196E370FF27E35FFE4F80EF8083C5E626
:101ED000D9E19CDF4F9906C00E940F07D150C9F786
:101EE000C150B1F7CE2DDD2DF12C15E500E0BB245E
:101EF000B394D7FD37C082E3C82E88DF0E940F0756
:101F0000CA94C110FACF110F4F9B1F5F1F731F336D
:101F100049F4011103C0CE2DDD2D04E00F5F083C14
:101F200028F020C0111102C001111CC0A8951C1678
:101F30001D0624F42A9711F4CFEFDFEF80911301EF
:101F4000882339F0F39480917B01811102C0B09213
:101F50007B0184E18F1568F680911201811102C026
:101F6000F12CC7CF802FCDB7DEB7E9E00C940D3D43
:101F7000CF939DDAC82F80914101882301F18130F0
:101F800051F4C73041F463E18EE069DA8BE264DC3E
:101F900063E18EE064DA80E49FE181DF811104C0B7
:101FA000809113018111F7CFC73041F48091410135
:101FB000813021F460E08EE052DA21DB81DACF91CA
:101FC00008951895189530911801A0913F01B0918E
:101FD0004001E7E9F1E080E090E08317B0F441913F
:101FE0001C962C911C97421719F04581241302C0AE
:101FF0000196F3CFFC01EE0FFF1FED55FE4F208140
:102000003181293E334008F4089584E10895109207
:102010001A0110921801109273011092510110923E
:10202000190110923D0110927A01EEE5F1E0108263
:1020300011821282EFE7F1E0108A82E0818B109228
:10204000220117861686148215821682178281EF66
:10205000838B08955E980E94FA0680E090E01FCF7F
:1020600008951F93CF93DF93162F17B818B8E82F52
:10207000F0E0EB5BFD4F949195B9262F281BE20F02
:10208000F11D27FDFA95E491E92BE4B90E9454076C
:10209000EC01812F0E945407AC0120913201309154
:1020A000330136952795C9010397BE01625E7F4FC4
:1020B0008617970778F4255E3F4FC217D30750F471
:1020C000BA01625E7F4F8617970720F481E04217BE
:1020D000530708F080E014B8DF91CF911F91089565
:1020E000CF9361E080E0BDDFC82F62E080E0B9DF20
:1020F000C80F62E081E0B5DF8C0FCF910895AFE0AB
:10210000B0E0E5E8F0E10C94E83CB82E10921A013A
:10211000807FA9F4E5DF833009F09DC3E6D984E62A
:1021200092E009DCAFD98FE397DB80ED97E0B7DE73
:102130008B30C8F4DAD98AE091E0FDDB8CC306E984
:1021400010E0D3D983ED91E0F6DBCADF833021F4D0
:102150001F5F143010F007C010E088E20E941C07D7
:10216000015079F763C08ED90E94B32781EB90E0CC
:10217000E2DB60E082E393E00E94883D60E083E37D
:1021800093E00E94883D60E081E393E00E94883DF7
:1021900060E082E00E9481086C019A83898361E09B
:1021A00082E00E9481087C019C838B8360E081E057
:1021B0000E9481088C019E838D8323E040E26EEFB4
:1021C000C601E7DC23E040E26EEFC701E2DC23E07A
:1021D0004DE16EEFC801DDDC2AE5C216D10424F022
:1021E00084E190E09A838983698182E393E00E948D
:1021F000883D8AE5E816F10424F084E190E09C83B0
:102200008B836B8183E393E00E94883D0A3511053F
:1022100024F084E190E09E838D836D8181E393E0DF
:102220000E94883D82E080934101A2DEEB2DEF7099
:10223000EF87E13011F018E749C1EE24E394F12C67
:1022400078EB872E72ED972E77E4A72EB12C02E063
:10225000E8E0DE2EF0E23F2EC12C1E2D52E2252EAC
:10226000F5D9F0D984E5F8DAC7010E9418060E9472
:1022700023061130B9F484EE90E05DDB64E08091D8
:1022800036019091370190DCFDD88FED90E053DB63
:1022900080917D0190917E010E9418068EEB8093C3
:1022A0002E01F0C0123091F52091320130913301AE
:1022B000A8E5BBE10E943E3C24EC36E340E050E060
:1022C0000E94223C29013A0181E085B9F5E0F4B988
:1022D00080E00E944807841995099A83898381E1E7
:1022E00084B980E00E944807841995099C838B83F8
:1022F00084E085B984E184B981E00E9448078419AB
:1023000095099E838D8389EC90E0AAC0133059F51E
:1023100005B92AE024B980E00E94480720913201E3
:10232000309133013695279538872F83821B930B85
:102330009A83898324B880E00E9448072F813885DA
:10234000821B930B9C838B83D5B888E284B981E090
:102350000E9448072F813885821B930B9E838D83B3
:102360008BEB90E07DC0143039F484E592E0E3DA41
:10237000B7DE81116DC275C01530B1F415B804B95E
:1023800080E00E9448079A838983D4B881E00E9444
:1023900048079C838B8334B882E00E9448079E8361
:1023A0008D838BED90E05CC0163051F504B905B912
:1023B00080E00E9448072091320130913301821B56
:1023C000930B9A838983D4B8D5B881E00E944807DB
:1023D0002091320130913301821B930B9C838B83BC
:1023E00034B835B882E00E9448072091320130911C
:1023F0003301821B930B9E838D8387ED90E030C069
:10240000173079F52091320130913301A8E5BBE115
:102410000E943E3CA50194010E94003C29013A0122
:1024200005B9E3E0E4B980E00E9448078419950902
:102430009A838983D5B8FCE0F4B981E00E9448070B
:10244000841995099C838B8335B820E324B982E0F5
:102450000E944807841995099E838D8385EB90E03F
:102460006ADA10D889819A810E940D060E9423069B
:102470008B819C810E940D060E9423068D819E8186
:102480000E940D0617B818B814B815B888EE93E076
:1024900006DD143011F08B3020F4C39484E0C812B0
:1024A000DFCE88EE93E0FBDCEFEFEE1AFE0AF8E0F9
:1024B000EF16F10409F0D0CEBECEC8D884E592E084
:1024C0003ADA84E60E941C07115019F009DE8111E6
:1024D000F4CF0BD88AEA90E02EDA23E04DE16FEFDB
:1024E000809134019091350154DB0E94420A83EAC5
:1024F00090E021DA23E04DE16FEF80913B01909174
:102500003C0147DB82E08093410132DD10921A01E9
:102510000E94750A8FE990E00EDA60E082E00E9486
:102520009B244090870150908801609089017090B1
:102530008A015C864B8661E082E00E949B24809049
:10254000870190908801A0908901B0908A019E86B1
:102550008D8660E081E00E949B24009187011091AC
:1025600088011E830D8362E080E00E949B2480919D
:102570008701909188019C838B8362E081E00E94B7
:102580009B2480918701909188019A87898761E0D7
:1025900080E00E949B24E0908701F0908801FA82FD
:1025A000E982C2010E942206C4010E942206B801EB
:1025B000110F880B990B03E026E444EF01DA2F8515
:1025C000213021F080913A01823031F482E0E80E2E
:1025D000F11CF886EF8204C0F886EF8210923A016F
:1025E0008E010F5F1F4F6E01EFE0CE0ED11CF80180
:1025F000819191910A97853B9105D0F4EC15FD05E9
:10260000B9F741E5E42E43E0F42EF80160810E5F56
:102610001F4F6E5EC7010E94883DFFEFEF1AFF0A51
:102620000C151D0591F70E94420A80EC91E083D9B8
:1026300082E0809341019CDC0E9465382F85213027
:1026400029F080913A01823009F0EBC00E94750AAE
:1026500080E056D986E691E06ED982E051D984E2D5
:1026600090E069D920E4F22E10E03AE0832E912C1C
:10267000A12CB12CCCDC10921A0160E082E00E9407
:102680009B240091910120917F0130918001409124
:10269000810150918201073F44F40F5FCA01B901E3
:1026A000A50194010E94003CF6CF00939101209374
:1026B0007F01309380014093810150938201073F55
:1026C00009F097C0DA01C90180569109A109B10941
:1026D00080399545A105B10508F08BC06091930143
:1026E00070919401CB018B569F4F8B32914008F033
:1026F00080C01F5F153008F47DC088E593E00E941C
:10270000963D0E94750A8DE190E015D98091930164
:10271000909194010E940D060E94C60718B881E0AE
:1027200087B980E284B982E00E945407853D9340D6
:10273000D4F714B8109231011092300182E00E9457
:1027400054078C0180917801909179019093310127
:102750008093300182E00E9454077C01EE0CFF1C44
:10276000109231011092300182E00E945407A09033
:102770007801B0907901B0923101A0923001800FC0
:10278000911F8C010E191F090E94420A86E190E0F8
:10279000D2D88AE593E00E947B3DD82E9501D801DE
:1027A0000E944D3C97010F2C000C440B550B0E94CE
:1027B000223C13E01D0D120F612F8AE593E00E9469
:1027C000883D812F012E000C990B0E940D060E945E
:1027D000C60782E080934101CBDB10923A0181E58C
:1027E00093E00E947B3D682F84E593E00E94883D42
:1027F00018C010E00E94420A60917F017091800130
:10280000809181019091820104E026E44091910140
:10281000D7D80E94FF0A88E20E941C07FA94F110A0
:1028200029CF89E180932E0180E00E94783B0E94AD
:10283000750A8AE091E07FD80E94420A8BE492E018
:102840007AD810921A0182E08093410191DB03C093
:1028500082E0C82E06CE2F96E2E10C94043D8091D2
:102860003A0181110DC081E593E00E947B3D61E05A
:10287000680F84E593E00E94883D81E080933A01EF
:102880000895EF92FF920F931F93CF93DF93D62F6C
:10289000E82FF0E0E85BFD4FE491E8B9E7B915B83F
:1028A000E62FF0E0EB5BFD4FE491E4B988E8E82E19
:1028B00083E1F82ECE2FCC0F8D2F0E9448078C017C
:1028C000C4B98E159F0510F47801F6CF892BD9F085
:1028D0000E94500A86E491E02ED8D80120EA36E81A
:1028E00041E050E00E94533C28E937EB40E050E0E3
:1028F0000E94003CDA01C90122E041E467EF49D9B6
:1029000017B818B814B8CDB7DEB7E6E00C94103D90
:10291000A0E0B0E0EEE8F4E10C94E83C80E48AB991
:102920008BB9C6E8C0937A001092C1000E94FC06E1
:10293000D4B784B7877F84BF0FB6F894A8958091E9
:102940006000886180936000109260000FBEC093A9
:10295000640088E380937E001092B00087E080934B
:10296000B10078940E949A0AD3FD64C580E185BFC6
:1029700084E080931101C0E04F9906C082E00E947C
:102980001C07CF5FCC33C1F78FE59DE690930C0118
:1029900080930B01CF3130F080E69DE690930C01DF
:1029A00080930B0110922F010E94B3279FE088E1D2
:1029B0000FB6F894A895809360000FBE90936000C6
:1029C000CC33B9F0C0E192E4C92E91E0D92E24E6CF
:1029D000E22E21E0F22E3CE0232EDDE040EFB42E8B
:1029E00053E3A52E61E2962E72E1872EE0E23E2EA1
:1029F00036C00E9425328111FCCFE4CF823009F429
:102A000060C1833009F48AC18FEA92E00E949B0C76
:102A100087E992E00E949B0C0E94420A8091180173
:102A2000805D0E942C0C8AE20E942C0C8CE391E0C9
:102A30000E949B0C8DE792E00E949B0C86E00E9416
:102A4000E10B00E41FE1C7B94F9BFECFC80127DAB5
:102A5000823308F4D1C40E9425328111FCCF0E9438
:102A6000750A17B8D4DA0E94B3270E943C0AF4D43E
:102A700080913D01882379F00E94420A8BE591E024
:102A80000E949B0C63E080913201909133018CD8BD
:102A900088EC0E941C074F9915C00E94260B80E409
:102AA00091E00E949B0C17B883E00E94500763E0FE
:102AB0004AE09C01429FC001439F900D112474D8AD
:102AC0008CE3E7CF0E94420A0E94C52380911A013D
:102AD000893021F50E94750A80E691E00E949B0CE6
:102AE0000E94420A63E080915601909157015CD8A0
:102AF0000E94230663E0809158019091590154D8B7
:102B00000E94230663E080915A0190915B014CD8AA
:102B10008AEC0E941C0781E1F2DA69C484E593E043
:102B20000E947B3D182F81E593E00E947B3D181B9E
:102B300010933A0180E0E3DA0E94260B89EC92E0E0
:102B40000E949B0C42E061E080E0FAD442E060E049
:102B500081E0F6D441E062E080E0F2D441E060E060
:102B600082E0EED440E062E081E0EAD440E061E05F
:102B700082E0E6D480911A0181110EC00E94C52323
:102B800060E082E00E949B2461E082E00E949B243E
:102B900060E081E00E949B240E94750AD09240016F
:102BA000C0923F0180911A01863069F485EC0E9441
:102BB000E10B60E188EF1ED866E080E00E942F0AFA
:102BC00080EA92E00EC08730F1F484EC0E94E10BC1
:102BD00060E188EF0FD866E080E00E942F0A89EA62
:102BE00092E00E949B0C66E082E00E942F0A84E73C
:102BF00091E00E949B0C62E0809146019091470118
:102C00000E94D40DF4C3883081F420918F0180910B
:102C1000900190E0820F911D029719F40E940D2AF5
:102C2000F4C380E00E943B29E2C3833009F0B0C0C6
:102C300080911801813009F0E1CE80E00E94CB063E
:102C40006091970180919D011CDE80E70E94A306A0
:102C500040E06091970180919D010E9488376093C8
:102C60007F0170938001809381019093820180E0C5
:102C70000E941F0B60917F01709180018091810102
:102C80009091820102E026E442EF0E94E00C0E9453
:102C9000250641E06091970180919D010E9488374F
:102CA00060937F01709380018093810190938201F2
:102CB00026E442EF0E94E00C81E391E00E949B0C2D
:102CC000F4C282E30E942C0C82E291E00E949B0CF1
:102CD0009091970130919801931307C080E00E9472
:102CE000E70681E00E94DE060CC020919D018091E4
:102CF0009E01281308C080E00E94D70681E00E9450
:102D0000EE0681E0A3CF321304C081E08093060178
:102D100032C0981379CEC09306012DC0A09206014F
:102D200080919D0190919801891303C021E0209327
:102D300006014091970130919E01431302C0C09358
:102D4000060120919901821303C082E0809306015D
:102D500080919F01481302C03092060132130EC0C9
:102D600080920601981761F083E30E942C0C82E2A6
:102D700091E00E949B0C0E94B90697C2981302C072
:102D80009092060180910601823208F03DCEECCF90
:102D9000843009F050C180917301882309F45DC02B
:102DA00080915101882309F458C060914E018091AF
:102DB00050010E949B2440907F01509080016090C0
:102DC0008101709082011091910160917201809156
:102DD00070010E949B248091420190914301A09137
:102DE0004401B091450140916401509165016091A9
:102DF000660170916701843F21E09207A105B1054A
:102E000038F4443F31E053076105710508F010EFD5
:102E1000443F51406105710538F4843F9140A1055C
:102E2000B10510F0B09291018091910118130EC07C
:102E300080917F0190918001A0918101B0918201E8
:102E4000481659066A067B0618F005C018171CF4C8
:102E5000D093190102C02092190180917301882337
:102E600061F080915101882341F04F9906C0909103
:102E7000190181E089278093190166E080E00E94B2
:102E80002F0A80EC0E94E10B809119018C3051F4E3
:102E900080E991E00E949B0C809173018823A9F046
:102EA00080E711C0F0924001E0923F018BEC91E08D
:102EB0000E94290C88E891E00E949B0C80915101AE
:102EC000882319F08EE60E942C0C7DD8182F8530AF
:102ED000A0F4A0913F01B0914001E82FF0E0E95645
:102EE000FE4F1D969C918081981711F062E001C001
:102EF00060E086E991E00E94130C60E189EF0E9496
:102F0000FA0D86E00E94050B8FE991E00E949B0C70
:102F1000E0913F01F0914001608171818281938154
:102F200003E020E04EEF0E94E00C87E00E94050BDA
:102F300089E40E942C0CE0913F01F09140018681D0
:102F400097818031974270F085E60E942C0CE091C9
:102F50003F01F0914001868197818051974297838C
:102F6000868303C083E60E942C0C0E942706E09112
:102F70003F01F091400122E041E46AEF86819781B0
:102F80000E94C90D86E00E94050B88E791E00E942F
:102F90009B0CE0913F01F091400163E084819581B9
:102FA0000E94D40D81E080934101E0913F01F091B6
:102FB000400180859185892B91F085E00E941F0B4F
:102FC00084E091E00E949B0CE0913F01F091400170
:102FD00022E041E46AEF808591850E94C90DE0916D
:102FE0003F01F091400182859385892B91F085E026
:102FF0000E941F0B8EEF90E00E949B0CE0913F011E
:10300000F091400122E041E46AEF828593850E94BD
:10301000C90D153068F480E00E941F0B812F0E94BB
:10302000CB0684E791E00E949B0C812F0E949506BD
:1030300043E462E438C1853009F041C166E080E0D4
:103040000E942F0A8091190184FF09C080E50E9427
:103050002C0CF0924001E0923F0102E004C08EE4AB
:103060000E942C0C00E00E94250680911901182F67
:103070001F70143061F48AEA91E00E949B0C83EC8B
:103080000E94E10B0023E1F184ED91E037C085FF60
:1030900005C084E40E942C0C0F5F03C085E40E94ED
:1030A0002C0C1330B1F484EA91E00E949B0C81EC6B
:1030B0000E94E10B013019F481E292E01FC002305E
:1030C00019F48DE292E01AC00330D1F48DEF91E053
:1030D00015C08FEA91E00E949B0C82EC0E94E10BEC
:1030E000013019F48DEE91E009C0023019F483EF3C
:1030F00091E004C0033021F48BED91E00E94290C93
:103100000E94E30F8530A0F4A0913F01B0914001EF
:10311000E82FF0E0E956FE4F1D969C9180819817AC
:1031200011F062E001C060E086E991E00E94130CBA
:1031300060E189EF0E94FA0D86E00E94050B86E0AF
:103140000E94050B8091190185FD1CC080E791E06C
:103150000E949B0CE0913F01F091400162E082856A
:1031600093850E94D40DE0913F01F0914001668566
:1031700084850E949B2486E00E94050B0E94B40C6B
:1031800085E06EC08F70E0913F01F0914001843086
:1031900039F0668584850E949B240E94B40C13C07C
:1031A00084819581892B79F080E090E00E949B0CCE
:1031B000E0913F01F091400122E041E46AEF848117
:1031C00095810E94C90D60E086E00E942F0A89E483
:1031D0000E942C0C84E60E942C0C0E942706E09191
:1031E0003F01F091400122E041E46AEF868197813E
:1031F0000E94C90D8AE691E00E949B0CE0913F017C
:10320000F091400162E0828593850E94D40DE091A7
:103210003F01F091400180859185803C9241F8F416
:1032200080E00E941F0B89E40E942C0C84E60E941F
:103230002C0C0E94270622E041E46BEF80E090E036
:103240000E94C90D8AE691E00E949B0CE0913F012B
:10325000F091400162E0808591850E94D40D80E06C
:103260000E94CC0C143009F4BDC000E0809118011C
:103270000817A0F4011103C080E00E94050B80E054
:103280000E941F0B802F0E94CB0684E791E00E94D2
:103290009B0C802F0E9495060F5FE8CF133009F03A
:1032A000C5C043E467E485E4A0C080917A01882327
:1032B00009F49DC0C7B917B880E00E941F0B209188
:1032C0007A01222309F481C02130A1F480916101A7
:1032D0000E94660620916101213039F42091180185
:1032E000211103C00E94C32990C040E0692F0E94B1
:1032F0007E287DC0909161018091620134E0839FBE
:10330000D0011124AC54BE4F44E0949FF00111242D
:10331000EC54FE4F4D905D906D907C9040815181BA
:1033200062817381441555056605770510F4182FE1
:1033300001C0192F223021F4890F13E0181B1CC083
:103340008091630194E0899FD0011124AC54BE4F59
:1033500024E0129FF0011124EC54FE4F4D905D903B
:103360006D907C9040815181628173814415550537
:103370006605770508F4182F712E769402E0011B7C
:10338000111103C06624639402C082E0682E872D69
:103390000E94800C8DE191E00E949B0C802F0E9486
:1033A000800C8DE191E00E949B0C862D0E94800C88
:1033B00080E00E94050B81E0111180E00E94700600
:1033C00082E087190E94700612C087E892E00E948E
:1033D0009B0C0E94420A84EB92E00E949B0C8FEAB5
:1033E00092E02ACB4FE367E48FE30E9450060091FE
:1033F0000B0110910C0127CB90911301933008F031
:103400002ACB81112CCB911121CB80913A018823B9
:1034100051F00E94750A8BE492E00E948E0C80E1CC
:1034200097E20E944F0F0E942A1019CB44E467E4F0
:1034300083E5DBCF0E943C0A84E792E00E949B0C6C
:103440008BEC0E941C070E942A1080E090E0CDB710
:10345000DEB7E2E10C94043D0F931F93CF93DF930B
:1034600085E00E94540785E00E9450078C01EC0122
:10347000CC0FDD1FCC0FDD1FCA56DF4F1092380175
:10348000C43883E0D80750F484EB91E00E949B0C91
:103490000E94FF0A81E08093380126C083EC91E00E
:1034A0000E949B0C62E0CE010E94D40D0E94230674
:1034B0000A3F86E0180790F40333164060F48DEB62
:1034C00092E00E949B0C0E94FF0A8DEC0E941C0758
:1034D0000E942A1009C084EC92E002C080EC91E0C6
:1034E0000E949B0C0E94FF0ADF91CF911F910F91C8
:1034F0000895CF93DF93DC019C01261B370BE0E09E
:1035000090E0B901690F711D672F7727920F260F81
:10351000371FBA016E0F711D672F7727E40FEB017C
:10352000CC0FDD1F4C0F5D1F6B3E28F4A217B307B5
:1035300040F7CA0102C080E090E0DF91CF9108958A
:10354000A7E1B0E0E6EAFAE10C94E83C8E8B162F96
:10355000042FA895E62FF0E0EB5BFD4F24912B871D
:10356000220F298B339634913A83E42FF0E0EB5B02
:10357000FD4F44914B833396F490E82FF0E0EB5BE2
:10358000FD4F84918983880F8E87339694919F8B0A
:1035900045B96B84642A64B897B998B9862F0E949C
:1035A00050079D878C87EB85E4B9812F0E945007D7
:1035B0001C0114B80E94050715B864B8812F0E9439
:1035C00050076C857D850E94B2074C01FA81F7B9DE
:1035D00018B82B813981232B2C8325B924B98E89E6
:1035E0000E9450070E94B8075C0115B80E940507A9
:1035F000498145B98E890E9450070E94B8076C0125
:10360000898184B98E890E9450070E94B807782E5C
:10361000E92EB601C5010E94B2078032E1E09E07A3
:1036200030F4F0E28F16F1E09F0608F48AC58C0CA6
:103630009D1C2C853D85820F931F8816990620F4CA
:10364000DD86CC86272C3E2C2091510130917301D0
:10365000822F90E0830F911D02974CF0213009F0EA
:1036600070C590914E018091700198136AC5EB80EE
:10367000EE0C39813E293A878C859D8584379105EA
:1036800008F48BC1880F991F44962816390608F054
:1036900084C19F8997B998B98B858E2984B9812F68
:1036A0000E944C076C01802F0E9454075C01E5B812
:1036B000812F0E944C079601295A3D4F18B82817B0
:1036C000390708F0AAC0EA81E7B9FA85F4B9F5B973
:1036D000802F0E944C0788349F4028F085E080931B
:1036E0001A0182E204C085E080931A0184E280938B
:1036F0001901D0924701C0924601B501C6010E944E
:10370000BD0790934D0180934C019601A0E1B7E273
:103710000E943E3C209114013091150140E050E0A0
:103720000E94003C309349012093480189898E29E9
:1037300084B915B83F8937B938B9802F0E9454072A
:103740006C01812F0E944C07B6010E94BD079C01AD
:1037500090934B0180934A01909119019F7094308E
:1037600071F5409148015091490160914C0170916F
:103770004D01C901BEDE0097F1F0E4B84F898A819E
:10378000482B47B9812F0E944C076C0117B89C0148
:10379000A0E1B7E20E943E3C20913B0130913C0108
:1037A00040E050E00E94003CA901B60180914A012E
:1037B00090914B019EDE909347018093460180914A
:1037C00019018F70843009F4B4C418B89A81F92AA9
:1037D000F7B8E981E4B9FC81F5B98E890E945007F8
:1037E0006C010E94B8077C01812F0E945407A090B1
:1037F0001D01B0901E01BC01C6010E94BD079501CC
:10380000DC010E943E3C970140E050E00E94003CF9
:1038100030934701209346018CC42A8127B93A8509
:1038200034B935B98E890E944C076C01802F0E94F3
:1038300054075C01498145B98E890E944C07895A19
:103840009D4F8C159D0508F07CC48F8988B987B978
:10385000802F0E944C07813D934028F485E080939F
:103860001A0182E304C085E080931A0184E3809307
:103870001901B601C5010E94BD0790936F018093A5
:103880006E01C6010E94B8079C01A0E1B7E20E9448
:103890003E3C20911D0130911E0140E050E00E940D
:1038A000003C30936B0120936A0118B8FA81F7B994
:1038B0008E858E2984B985B98E890E9454076C0142
:1038C000802F0E944C07B6010E94BD079C01909377
:1038D0006D0180936C01909119019F70943091F566
:1038E00040916A0150916B0160916E0170916F017E
:1038F000C901FFDD009711F1E5B8E4B82F8928B9B7
:103900002A80222A27B88E890E944C070E94B80775
:103910006C0117B89C01A0E1B7E20E943E3C2091E7
:1039200034013091350140E050E00E94003CA90193
:10393000B60180916C0190916D01DBDD909369017E
:1039400080936801809119018F70843009F4CFC190
:103950003F893F2938B937B915B84C8144B98E89A8
:103960000E9450075C01812F0E9454077C01C09087
:103970001401D0901501BC01C5010E94BD0796013C
:10398000DC010E943E3C970140E050E00E94003C78
:103990003093690120936801AAC118B88A8187B958
:1039A000998195B9EA85E4B98E890E945007988B70
:1039B0008F870E94B8079F838E83802F0E945407B1
:1039C000998788872101F4E64F0E511C2E813F8193
:1039D000B10142165306D8F4C9010E94BD076C011B
:1039E00020911D0130911E0140E050E060E871EA35
:1039F00083E09CE10E94003CD6010E94533CE88594
:103A0000F9854F01A12CB12CA501940123C08E8111
:103A10009F810E94BD076C01FC81F4B98E890E94D0
:103A20005007988B8F870E94B8079F838E83802FC3
:103A30000E94540799878887BC01C6010E94BD0770
:103A40009C01A4E6B0E00E943E3CE885F9859F0118
:103A500040E050E00E94003C49015A0114B815B8FA
:103A6000FF89F8B9F7B981E00E941C0764B8812F7B
:103A70000E9450077B847E288F359D4008F43DC10D
:103A800074B8812F0E944C076C01802F0E9454074C
:103A90009B8B8A8B8E890E9454079D8B8C8B8A8985
:103AA0009B89813D974008F4B1C084E080931A015E
:103AB0008DE08093190176012C143D0410F4E21876
:103AC000F3084090140150901501612C712C60E8AE
:103AD00071EA83E09CE1A30192010E94003CD701BE
:103AE0000E94533CEA89FB899F0140E050E00E941C
:103AF000003C80917301882369F08091640190916A
:103B00006501A0916601B091670182179307A40730
:103B1000B50708F520936401309365014093660171
:103B2000509367019601A0E1B7E20E943E3CA301D9
:103B300092010E94003C30936B0120936A016A89D4
:103B40007B898C899D890E94BD0790936901809330
:103B5000680181E001C080E04091640150916501FD
:103B60006091660170916701481559056A057B05EA
:103B700038F58092640190926501A0926601B0923E
:103B80006701688579858F8598890E94BD07909324
:103B90006901809368012E813F81A0E1B7E20E9414
:103BA0003E3C20911D0130911E0140E050E00E94FA
:103BB000003C205F384D30936B0120936A0103C0B5
:103BC000882309F499C3C0901401D0901501E12C09
:103BD000F12C9101A0E1B7E20E943E3CA7019601C1
:103BE0000E94003C30936D0120936C012C853D8533
:103BF000A0E1B7E20E943E3CA70196010E94003C72
:103C000030936F0120936E0181E076C3F1E62F16A9
:103C1000310408F072C021EDC21627E0D20608F484
:103C20006CC085E080931A0182E180931901C6017E
:103C300086509F4FEC89FD898E179F0720F483E102
:103C40008093190116C0E0901401F0901501B6019F
:103C50008C899D890E94BD079701DC010E943E3C32
:103C6000960140E050E00E94003C309369012093AF
:103C70006801FA81F7702F2E802F806480937C007A
:103C80002BE02983CC24C394D12CEE24EA94A3E026
:103C9000FA2EA89561E08B8160D574B886B1822137
:103CA000E9F33B8534B980917A00806480937A008F
:103CB00080917A0086FDFCCF809178009091790008
:103CC000F701E81BF90BCE0EDF1EF981F150F983E5
:103CD000F111DFCFC601880F991F880F991F69E086
:103CE00070E00E94D93B70936F0160936E018091E8
:103CF00073018F5F8093730187CF74B8E5B8812F0C
:103D00000E9450075C01802F0E9454079F838E837E
:103D10000E94B8077C014A145B04A8F4B101C501F4
:103D20000E94BD076C01209114013091150140E003
:103D300050E060E871EA83E09CE10E94003CD6011B
:103D40000E94533C1DC064B82B8125B9812F0E946D
:103D500050075C01802F0E9454079F838E830E942E
:103D6000B8077C01C5012A143B0410F48219930999
:103D7000B7010E94BD079C01A4E6B0E00E943E3C52
:103D8000970140E050E00E94003C29013A013A814D
:103D900037B918B84C8144B945B98E890E9450078B
:103DA0006C01802F0E9454074C01812F0E94540700
:103DB0007C0180E3C81681E1D80608F0C0C1998172
:103DC00095B98E890E94500799878887E981E4B95F
:103DD0008E890E945007988B8F8715B881E00E94CA
:103DE0001C07F981F5B98E890E9450072F85388903
:103DF0002034364008F05FC08133914108F45BC045
:103E0000C6018A569F4F288539852817390708F03B
:103E100052C086E080931A01809151018F5F809398
:103E20005101B701C4010E94BD07909347018093DF
:103E30004601B701C6010E94BD0790934D018093D2
:103E40004C0114B815B83A8138B981E00E941C07BA
:103E5000498144B98E890E945007853F910508F039
:103E60005AC28C8184B9802F0E945007813D9340B3
:103E700008F451C28E890E9454078D3D924008F487
:103E80004AC2298124B98E890E9450078D3D9240F3
:103E900008F441C2498145B981E00E941C0715B868
:103EA0008E890E945007853F910508F034C287E053
:103EB00080931A0130C28A8187B99B8194B995B9E0
:103EC00081E00E941C07EA85E4B9E5B98E890E9469
:103ED00050076C010E94B8077C01802F0E94540794
:103EE0009D838C830E94B80799878887812F0E94C1
:103EF00054074C01288539852E3F394008F4B0C05D
:103F000084E080931A018CE080931901B101C7010C
:103F10000E94BD076C0120911D0130911E0140E0FF
:103F200050E060E871EA83E09CE10E94003CD60129
:103F30000E94533CE885F9859F0140E050E00E94D3
:103F4000003C80915101882369F080914201909159
:103F50004301A0914401B091450182179307A40742
:103F6000B50720F52093420130934301409344016B
:103F700050934501B4018C819D810E94BD079093AF
:103F80004701809346019701A0E1B7E20E943E3CC1
:103F900020911D0130911E0140E050E00E94003C44
:103FA000309349012093480181E001C080E04091B5
:103FB00042015091430160914401709145014415C3
:103FC00055056605770528F5409242015092430158
:103FD0006092440170924501B5018E819F810E94DB
:103FE000BD0790934701809346019501A0E1B7E298
:103FF0000E943E3C209114013091150140E050E0B8
:104000000E94003C205F384D3093490120934801C5
:1040100003C0882309F480C19101A0E1B7E20E94A6
:104020003E3C209114013091150140E050E00E9487
:10403000003C30934B0120934A012C853D85A0E143
:10404000B7E20E943E3C20911D0130911E0140E0EC
:1040500050E00E94003C30934D0120934C015BC125
:10406000F1E62F16310408F06AC029E4E2162DE0CB
:10407000F20608F464C085E080931A0182E0809320
:104080001901C40186509F4F8C159D0520F483E0D3
:104090008093190115C0A0901D01B0901E01B401BC
:1040A000C6010E94BD079501DC010E943E3C9701BC
:1040B00040E050E00E94003C3093470120934601CD
:1040C0003F893770D32E802F806480937C004BE033
:1040D0004A83EE24E394F12CA89560E08B813DD3D4
:1040E0008A8584B985B986B18D21E9F7998194B91A
:1040F00080917A00806480937A0080917A0086FDB6
:10410000FCCF8091780090917900E80EF91EEA8149
:10411000E150EA83E111E0CFC701880F991F880FB2
:10412000991F69E070E00E94D93B70934D01609344
:104130004C01809151018F5F80935101ECC017B801
:1041400018B814B815B817B8F7EC2F16F1E03F06F9
:1041500008F4C4C018B82E8524B908ECEA803F8959
:10416000E32AE7B881E00E941C074A8147B98E899B
:104170000E945407429710F0015099F78E8584B938
:1041800085B961E08B81E9D28E890E9450074C018C
:10419000998994B915B8EF89E7B9E8B960E08B81DE
:1041A000DCD2812F0E9450070E94B8076C01FB856A
:1041B000F4B9812F0E9454077C018E890E94500718
:1041C000B7010E94BD077C01812F0E9454075C014A
:1041D0008E890E945007B5010E94BD0797012C5E91
:1041E0003F4F2817390708F47CC018B82A8127B92F
:1041F000398134B935B961E08B81AFD2812F0E940A
:1042000054075C018E890E945007B5010E94BD07CA
:104210005C01E816F90650F44E8544B945B98E891B
:104220000E9450079C01640175010FC0898984B9FF
:1042300015B89F8997B998B960E08B818ED2812F8C
:104240000E9450070E94B8079C01E8EEEE16E3E0DA
:10425000FE0630F4C70164E670E00E94D93B06C058
:10426000B70154E0769567955A95E1F7C7018759EC
:1042700091098938914190F52E153F0578F5C601D1
:1042800043E0969587954A95E1F7893C910510F0B2
:1042900088EC90E08C0D9D1D8E159F05F8F46C1533
:1042A0007D05E0F480911A01833018F483E0809357
:1042B0001A0120911801822F90E0FC01E956FE4F6F
:1042C0003E8930831683880F991FFC01ED55FE4F00
:1042D000F182E0822F5F2093180103C0612F8E8945
:1042E0002AD017B818B814B815B88EE20E942C0C52
:1042F0006796E2E10C94043D909173019F5F909367
:104300007301882371F300937001109371014E893A
:1043100040937201E6CF81E0909151019F5F9093AD
:1043200051018823F1F200934E018E8980934F0151
:1043300010935001D6CFA0E0B0E0E1EAF1E20C9496
:10434000EA3CA895462F50E0FA01EB5BFD4F9490B4
:1043500033969491A82FB0E0FD01EB5BFD4FE49004
:104360003396F490709173012091510130E0270F42
:10437000311D232B09F0ECC1A8952091200130912B
:104380002101220F331F220F331F3093330120935B
:1043900032012091780130917901220F331F220FD1
:1043A000331F30933101209330012EEB20932E01E7
:1043B000C0911801E7E9F1E070E04A0F5B1F7C173C
:1043C00059F02191A58130E02A0F311D24173507BE
:1043D00009F451C07F5FF3CFD62FC82F18B897B913
:1043E000E4B8E5B8B8E1BB2EC12CD12C8D2F0E94CA
:1043F0005007782E692E8C2F0E9454078C018C193F
:104400009D0997FF03C0919581959109039734F019
:10441000A895BA946801B110E9CF2DC0EE0C15B87B
:10442000E4B88C2F0E9450078135910520F5E5B83E
:104430008C2F0E9450076C01F7B8F8B815B894B8E3
:10444000A8E18A2EA12CB12C8C2F0E945007582E47
:10445000492E8D2F0E9454077C018A199B0997FFD2
:1044600003C09195819591090397CCF0A8958A9402
:1044700057018110E9CF8091200190912101909303
:10448000330180933201809178019091790190936A
:1044900031018093300189E180932E0159C1990C3B
:1044A00094B88D2F0E9450075C01003C84E41807EB
:1044B00030F425E8C21621E0D206E8F605C080EB0C
:1044C000C8168DE4D806B8F624EAE21622E0F20611
:1044D00008F06CC088E9A816B10468F2C6010E9411
:1044E000B807AC019601A8E9B7EB0E943E3C9A01DF
:1044F00040E050E00E94003C29013A01C5010E94C1
:10450000B8079C01A8E9B7EB0E943E3C850120E07A
:1045100030E0A90198010E94003C88E7C8168FE0AE
:10452000D80680F4D301C201F2E0880F991FAA1FB8
:10453000BB1FFA95D1F7BC01CD01620F731F841F19
:10454000951F14C088E7A8168FE0B806B0F4DA010A
:10455000C901E2E0880F991FAA1FBB1FEA95D1F796
:10456000BC01CD01640D751D861D971D25E030E051
:1045700040E050E00E94003C0CC0D301C201820F19
:10458000931FA41FB51F9C01AD0156954795379504
:104590002795A4E6B0E00E94533C2B013C012CEA95
:1045A000420E2DE0521E611C711C79C0672D762DC4
:1045B0000617170708F4B801C52CD42CCE14DF0455
:1045C00008F467010617170708F48B01A0901D0176
:1045D000B0901E01C8010E94BD079501DC010E9438
:1045E0003E3C2B013C01C8010E94B8079C0140E001
:1045F00050E0C301B2010E94003C29013A01CE14EF
:10460000DF0408F47601A0901401B0901501B70101
:10461000C6010E94BD079501DC010E943E3C470196
:10462000A12CB12CA50194010E94003C08378FE019
:10463000180780F4D301C20162E0880F991FAA1FF6
:10464000BB1F6A95D1F7BC01CD01620F731F841F98
:10465000951F14C088E7E8168FE0F806C0F4DA0169
:10466000C90132E0880F991FAA1FBB1F3A95D1F7E5
:10467000BC01CD01640D751D861D971D25E030E040
:1046800040E050E00E94003C29013A0108C0420E7F
:10469000531E641E751E7694679457944794109128
:1046A0001A01143008F0E7CEC1500C2F0D0F202F47
:1046B00030E0E901C25ADE4F8881220F331F220FFA
:1046C000331FF901EC54FE4F8823D9F1C080D1800B
:1046D000E280F380A30192012C193D094E095F0984
:1046E00057FF07C050954095309521953F4F4F4F4C
:1046F0005F4FAAE0B0E00E94533C24E6C20ED11CFA
:10470000E11CF11CA7019601240D351D461D571D06
:104710000E94003C232B242B252B09F0ACCE133018
:1047200019F081E080931A0182E0888380917A01F8
:10473000E82FF0E0EF59FE4F00838F5F80937A01FE
:104740009ACE408251826282738281E0888393CEC6
:10475000CDB7DEB7E0E10C94063DCF93C82FC095EE
:1047600095B160FF02C0982B01C09C2395B994B10C
:10477000892B84B982E00E941C0784B18C2384B900
:1047800085B1C823C5B9CF910895AF92BF92DF928A
:10479000EF92FF920F931F93CF93DF931AE08FE373
:1047A000D82E09E017B818B815B8D4B880E00E9420
:1047B00050077C0181E00E945407EC0182E00E94D6
:1047C00054079C0180911A01893079F417B814B804
:1047D000F0925701E0925601D0935901C0935801CD
:1047E00030935B0120935A015CC084E0E816F10429
:1047F00040F4C430D10568F42430310538F391E039
:104800000CC091E088EEE81683E0F80618F090E01E
:1048100001C091E0C83ED34008F49260283E334086
:1048200008F4946097B9C0E0D0E0A89580E00E94B9
:1048300048075C0181E00E9454077C0182E00E94ED
:10484000540724E1A21625E0B20608F4389A24E1C0
:10485000E21625E0F20608F4399A843125E0920741
:1048600008F43A9A26E0A216B10430F426E0E216E3
:10487000F10410F4069738F02196C43F81E0D80780
:10488000A1F600931A01E12CF12CEC16FD0631F093
:104890000E940B072FEFE21AF20AF7CF115009F02E
:1048A00081CFDF91CF911F910F91FF90EF90DF901B
:1048B000BF90AF900895CF92DF92EF92FF92CF9387
:1048C00020917F01309180014091810150918201BE
:1048D000C09191018AE0C82ED12CE12CF12C8C2FB3
:1048E000CF5F213A96E8390791E04907510538F042
:1048F000CA01B901A70196010E94003CF0CF809344
:104900009101A0913201B09133010E94533C28E8FB
:1049100033E140E050E00E94003C20937F0130935F
:1049200080014093810150938201CF91FF90EF90DD
:10493000DF90CF9008958F929F92AF92BF92CF92C7
:10494000DF92EF92FF921F93CF93DF93982F990FEF
:10495000980F2FEF260F920F90935301E82FF0E05E
:10496000EB5BFD4FD491262F30E0F901EB5BFD4F5F
:10497000F490F901E85BFD4FD49090911A019130C9
:1049800009F49DC220911801E7E9F1E0DF0190E010
:10499000921791F016963C911697631309C03C91BB
:1049A000831306C0448555854C3D554008F487C2A5
:1049B0009F5F11963296ECCF162FC82F10928C0164
:1049C00010928B0181EF8093910110927F011092E0
:1049D00080011092810110928201D7DE18B8D7B8F9
:1049E000F4B8F5B88C2F0E9454075C01812F0E9407
:1049F0005407A81AB90A14B810925501109254011C
:104A00008091540190915501843F914008F0A9C0D4
:104A1000D5B9D4B90E94050714B815B80E940C077F
:104A2000A8958C2F0E9454077C01EA18FB088091FE
:104A30005401909155018E37910528F08BE4E816CA
:104A4000F1040CF48EC080915401909155012DE237
:104A5000E21621E0F20634F401969093550180931A
:104A60005401CECF892B09F0A1C185E1E81685E07C
:104A7000F8060CF49BC189DE15B887E087B918B831
:104A8000FD2EFF0CF4B880E480937B0084E580BFAA
:104A90008C2F806480937C0086E180937A000E9452
:104AA0000F0710925501109254011092800010923D
:104AB00085001092840087E286BB81E280936F00BC
:104AC00081E080937C01F5B890911A018093810078
:104AD000953009F04BC081E090E00C2E01C0880FAA
:104AE0000A94EAF78095877087B9F89483B7817F35
:104AF00083BF80917C01882389F083B7816083BF65
:104B00007894889583B78E7F83BFF894A895809119
:104B10005401909155018034964059F77894109241
:104B20008100E0908600F090870010926F0086E987
:104B300080937A0014B815B88C2F0E9454072091E6
:104B4000360130913701821B930B0C9690939401A0
:104B5000809393018091540190915501803293404C
:104B600038F017B818B814B815B8A9C1D7B8BDCF60
:104B7000809154019091550190938A01809389010D
:104B8000F0928801E092870184EF809391018091F7
:104B900054019091550182349105C8F060918701CC
:104BA000709188018091890190918A0124E630E01A
:104BB00040E050E00E94003C209387013093880140
:104BC0004093890150938A0186EF80939101A091CF
:104BD0007D01B0917E012091870130918801409143
:104BE000890150918A010E94533C20E233E040E069
:104BF00050E00E94003C209387013093880140934D
:104C0000890150938A0120937F0130938001409362
:104C10008101509382014FDE80919101843F09F020
:104C200070C0C0907F01D0908001E0908101F09031
:104C3000820180EAC8168FE0D806E104F104C0F4CE
:104C4000A70196012C543F4F4F4F5F4F60EA7FE022
:104C500080E090E00E94003CC20ED31EE41EF51ED0
:104C6000C0927F01D0928001E0928101F092820196
:104C7000C0907F01D0908001E0908101F09082018E
:104C8000C114D10421E0E206F10428F4D092C50158
:104C9000C092C40106C081E090E09093C50180936A
:104CA000C4018091530190E08F5A9C4F0E947B3D3C
:104CB00090E0A0E0B0E08C159D05AE05BF0568F45E
:104CC000C81AD90AEA0AFB0AC0927F01D092800171
:104CD000E0928101F092820114C034E1C30ED11C34
:104CE000E11CF11CC816D906EA06FB0610F40E9466
:104CF0002F1410927F011092800110928101109266
:104D00008201D4B980917F0190918001A0918101AD
:104D1000B09182014997A105B10508F422CFC12CB9
:104D2000D12C80911801882329F080911A018530B7
:104D300009F017CF88E080931A018091910190913A
:104D400092019817C4F089130CCF80907F01909046
:104D50008001A0908101B090820140918301509127
:104D600084016091850170918601481559056A0595
:104D70007B0508F0F6CE40917F0150918001609153
:104D8000810170918201409383015093840160936B
:104D900085017093860180939201D0928E01C0921A
:104DA0008D0110938F01C0939001DBCEC701C12C00
:104DB000D12C20915401309155012C153D0560F006
:104DC0000E9406078C2F0E9454078A199B09A895F8
:104DD0002FEFC21AD20AEDCF5701A81AB90A1A1436
:104DE0001B049CF439ECA316B1040CF0BACE28EEE7
:104DF00033E0D5010E944D3C97010F2C000C440B71
:104E0000550B0E94003C690102C0C12CD12C80913D
:104E10005401909155010196A0E0B0E08093870184
:104E200090938801A0938901B0938A01C7018A0DEC
:104E30009B1D0E941E08209187013091880140919E
:104E4000890150918A01DC010E94533C60938701E3
:104E5000709388018093890190938A0160937F0108
:104E600070938001809381019093820187EF8093FA
:104E7000910121DD80907F0190908001A0908101BF
:104E8000B090820184E393E00E947B3DA8EEB3E002
:104E9000A81BB10987FDB395A50194010E945D3C53
:104EA00024E630E040E050E00E94003C20937F0187
:104EB00030938001409381015093820132CFDF9182
:104EC000CF911F91FF90EF90DF90CF90BF90AF9068
:104ED0009F908F9008951F920F920FB60F921124FA
:104EE0008F939F93B59904C080917C01811109C073
:104EF000B59B10C080918600909187008A3F9105F4
:104F000048F4809154019091550101969093550178
:104F1000809354019F918F910F900FBE0F901F901F
:104F200018951F920F920FB60F9211248F939F9393
:104F300010927C01B09B10C08091860090918700F8
:104F40008A3F910548F48091540190915501019652
:104F500090935501809354019F918F910F900FBEB4
:104F60000F901F901895A0E0B0E0E9EBF7E20C94E9
:104F7000EE3C88E893E19093210180932001909387
:104F80003301809332018EEB80932E0118B880E1BB
:104F900087B90E94140717B884E00E945007AC013B
:104FA0008B5C9840833F9140A0F481E080933D0169
:104FB0002091320130913301AFEBB9E00E943E3CC9
:104FC0009A0140E050E00E94003C30932101209380
:104FD00020018091200190912101909333018093D1
:104FE00032018EE00E9454078EE00E945007909399
:104FF0003701809336010E94C607C7DB18B8C1E0AD
:10500000C7B985E185B9C4B980E00E9450078C0119
:1050100082E0D82ED7B8D4E0D4B981E00E945007FE
:10502000080F191FD7B990E1C92EC4B882E00E94B9
:105030005007080F191F15B8C8B9C7B9C4B980E01F
:105040000E9450070E94B8077C01D8B8D7B8D4B9DD
:1050500081E00E9450070E94B807E80EF91ED8B9F7
:10506000D7B9C4B882E00E9450070E94B807E70190
:10507000C80FD91F17B818B814B820913201309151
:1050800033016901CC0CDD1CC20ED31EC01AD10A3B
:10509000CC1ADD0AE12CF12C9801A0E9BAE10E94BA
:1050A0003E3CA70196010E94003C49015A01309301
:1050B0003C0120933B019E01A0E9BAE10E943E3CE5
:1050C000A70196010E94003C3093350120933401E2
:1050D0002057354E30931E0120931D0180E7881A1A
:1050E00085EE980A909215018092140189E18093CF
:1050F0002E01CDB7DEB7ECE00C940A3DCF92DF92E3
:10510000EF92FF920F93CF93DF93F82EC62FD42FF9
:105110000E94800C8DE191E00E949B0CFBD16C2FD2
:105120008F2D0E94F839C090C801D090C901E0903D
:10513000CA01F090CB018091220187FD05C0C11406
:10514000D104E104F10421F089E191E00E949B0C7B
:105150008C2F0E94800CC114D104E104F10431F0C1
:105160000E942306809161010E947006DD2351F0A8
:1051700080913E01813130F490E08B5A9C4F0E9427
:105180009B0C02C00E94FF0A80E00E941F0BCD28EA
:10519000CE28CF28D9F06091C8017091C9018091C3
:1051A000CA019091CB0103E028E447EF0E94E00C94
:1051B0008CE291E00E949B0C8AE693E00E94833D82
:1051C00023E046E464EF0E94C90D1AC0809161019A
:1051D0000E947006809122018E3F94F48AE491E04F
:1051E0000E949B0C6091AF017091B0018091B10160
:1051F0009091B20103E028E4409122010E94E00C6A
:105200008091C0019091C101A091C201B091C301F0
:10521000892B8A2B8B2BF1F080E00E941F0B609171
:10522000C0017091C1018091C2019091C30104E05D
:1052300028E440E00E94E00C87E291E00E949B0C91
:1052400023E040E26FEF8091C6019091C7010E9478
:10525000C90D07C080E00E94050B809141018111BA
:1052600002C00E94FF0ADF91CF910F91FF90EF9053
:10527000DF90CF900895EF92FF920F931F93CF93FB
:10528000DF93182F0E943C0A80918F010E94800CAE
:1052900086E691E00E949B0C6ED360918F01809115
:1052A00090010E948108EC0190938C0180938B0106
:1052B000E0908D01F0908E01CA3F8FEFD80720F467
:1052C0008EE191E00E949B0C809190010E94800CE5
:1052D000112359F090913E0181E1891B0E94260A19
:1052E00089E690E00E949B0C02C00E94FF0A0E9487
:1052F000420A6091830170918401809185019091AF
:10530000860104E026E4409192010E94E00CCA3F2D
:10531000DF4F68F485E591E00E949B0C22E04DE1AF
:105320006EEF80918B0190918C010E94C90D0E94BB
:10533000FF0A0E94490AE114F10469F08EE491E049
:105340000E949B0C22E045E26FEF80918D019091CD
:105350008E010E94C90D0E94FF0ACDB7DEB7E6E0BC
:105360000C94103D8F7021F40E94500A0C942C1A5A
:1053700008958F3021F490913801913011F08F5FB2
:10538000089580E00895CF9384E790E00E94B132C1
:105390006AE080E00E942F0A8FE593E00E949B0C58
:1053A000C0E00E94071060E082E00E949B2162E062
:1053B00080E00E949B210E943C0A80917A01882310
:1053C00029F041E062E080E099DE12C084E790E0DD
:1053D0000E949B0C8FE593E00E949B0C0E94420A66
:1053E0008FE30E942C0C80E00E94050B0E94FF0AB4
:1053F0008C2FB8DF88EE93E00E944F0F811109C017
:1054000080911301843028F48C2FB3DFC82F8A3F9A
:1054100040F20E94750ACF9108950F931F93CF9386
:10542000DF93C0E0D8E012EF01E10E94071060E0D6
:1054300082E081DAD0931A0180919101843FE1F4F6
:1054400080917F0190918001A0918101B0918201B2
:1054500084369105A105B10578F440E060E082E072
:105460000E94883760937F0170938001809381014F
:10547000909382011093910180919101823FACF051
:105480008093920180917F0190918001A091810190
:10549000B09182018093830190938401A093850150
:1054A000B093860181E0E7DE1CC00E943C0A8DE6D5
:1054B00090E00E949B0C80913E01902F981B892FB9
:1054C0000E94260A89E690E00E949B0C0E94420AF4
:1054D0008FE30E942C0C0E94FF0A0E94490A0E943E
:1054E000FF0A8C2F3FDF88EE93E00E944F0F81115F
:1054F0000AC080911301843030F48C2F3ADFC82F1A
:105500008A3F08F492CF0E94750ADF91CF911F91D4
:105510000F910895A4E1B0E0E0E9FAE20C94E83CD0
:1055200082E08093220180911A01813009F01FC22C
:1055300080917A01813009F01AC20091610124E062
:10554000029FF0011124EC54FE4F80819181A281D1
:10555000B381893032E59307A105B10508F007C290
:105560004C0110E0802F123028F40E946606582E5D
:10557000492E03C00E9466062C01E42DF0E0E85B92
:10558000FD4F2490852D90E0FC01EB5BFD4FE491F5
:1055900015B818B820EF82169104B0F410FD14C0AD
:1055A000A0901401B090150130E9A31A3AE1B30AB2
:1055B00021E030E0052C02C0220F331F0A94E2F7ED
:1055C000C901822987B906C0E4B927B8A09014019F
:1055D000B0901501F4E13F2E852D0E944C073C014F
:1055E000842D0E94540734E06316710410F404976C
:1055F00018F03A943110F0CF80E480937B0094E56A
:1056000090BF852D806480937C0026E120937A00F2
:10561000E12CF12C109280001092850010928400F1
:1056200037E236BB0E940F07812F8170382E10FDA4
:1056300005C081E88093810028B808C028B80E947E
:10564000180790E296BB81E88093810086B385FFBE
:1056500012C018B81092810020E226BB209186006B
:105660003091870069014091840050918500241792
:10567000350770F014C080FFE9CF31E036BBA89544
:1056800097012F5F3F4F790120353105F9F6E1CFC2
:1056900080FF05C081E086BB9FEFE91AF90A86E921
:1056A00080937A00E4E12E2E852D0E944C073C0168
:1056B000842D0E94540724E06216710410F40497AC
:1056C00018F02A942110F0CF40903B0150903C01FB
:1056D000480C591C4A0C5B1C209116013091170193
:1056E00080E9A8168AE1B806B0F491EEC916D10493
:1056F000E104F10438F4C60165E070E00E94D93B92
:10570000645101C069E128523109261B310967FD46
:10571000339586E009C0C20160EB76E30E94D93B75
:1057200087E0860F285D3F4F90E0A0E0B0E08C1549
:105730009D05AE05BF0528F4C81AD90AEA0AFB0A76
:1057400003C0C12CD12C7601332029F082E2C80E8F
:10575000D11CE11CF11C90E5E916F10418F0C12CF4
:10576000D12C76018BE0C816D104E104F10428F0B5
:1057700091E0C91AD108E108F10840913201509135
:105780003301612C712CA8EEB3E00E943E3C698B82
:105790007A8B8B8B9C8B9501DA010E943E3CA30196
:1057A00092010E94003C4427552769897A898B8998
:1057B0009C890E94003CC9010E945D08FC01A30174
:1057C0009201C701B6010E94BE3B2B013C01CF01F3
:1057D000A0E0B0E073E0880F991FAA1FBB1F7A9565
:1057E000D1F7BC01CD016B5F7F4F8F4F9F4F2AE0F8
:1057F00030E040E050E00E94003CC301B2010E9452
:10580000003CE12FF0E0A1E0B0E0AC0FBD1F84E070
:10581000189FA00DB11D11242D933D934D935C93C2
:105820001397311016C09CE0C916D104E104F104AD
:1058300080F03196EE0FFF1FEE0FFF1F81E090E02A
:105840008C0F9D1FE80FF91F208331834283538300
:105850001F5FA8951F5F143008F484CE18B884E049
:105860000E941C0791E00D811E812F81388549819E
:105870005A816B817C81401751076207730708F0DA
:1058800090E00D851E852F85388949855A856B8561
:105890007C85401751076207730710F483E001C04D
:1058A00082E0E92FF0E0EE0FFF1FEE0FFF1F21E077
:1058B00030E02C0F3D1FE20FF31FD90134E0839F2E
:1058C000A00DB11D11240D911D912D913C91408190
:1058D000518162817381041715072607370708F085
:1058E000892FE1E0F0E0EC0FFD1F94E0899FE00DCF
:1058F000F11D112440815181628173814093AF0178
:105900005093B0016093B1017093B20180FD08C063
:1059100020EF8216910420F48BEF8093220117C0B0
:105920008CEF80932201CB01BA016B5F7F4F8F4FC9
:105930009F4F2AE030E040E050E00E94003C20937E
:10594000AF013093B0014093B1015093B201809107
:10595000AF019091B001A091B101B091B201892B3A
:105960008A2B8B2B11F41092220117B814B864966D
:10597000E2E10C94043DA0E0B0E0E1ECFCE20C9428
:10598000EE3C80918D0190918E01892B09F09BC096
:10599000E0918F01F0E0E85BFD4FD491E091900140
:1059A000F0E0EB5BFD4FC4910E94C52318B815B819
:1059B000D7B9C4B9809190010E9454078C01D0914D
:1059C00092018CE08D0F843008F07DC080918301BE
:1059D00090918401A0918501B0918601D15F2AE068
:1059E000822E912CA12CB12CBC01CD016B5F7F4F7D
:1059F0008F4F9F4FA50194010E94003C69017A01DD
:105A0000DA01C901DF5FD73079F729E8C21623E14F
:105A1000D206E104F10408F056C0059708F453C01B
:105A2000C5B9C4B9C0E0D0E0CC15DD0520F40E94B2
:105A300016072296F9CF14B815B8A89585E080937B
:105A40002E01809190010E9454070817190720F435
:105A5000EC01C01BD10B02C0C0E0D0E0A12CB12CE6
:105A6000AC14BD0430F40E9416078FEFA81AB80AD0
:105A7000F7CF809190010E94540729E120932E01D5
:105A8000A8950817190718F4801B910B02C080E035
:105A900090E08C179D0788F49E01281B390B69F054
:105AA000A4EFB1E00E943E3C9E0140E050E00E9425
:105AB000003C30938E0120938D010E94C52317B8BE
:105AC00018B814B815B8CDB7DEB7ECE00C940A3DA1
:105AD0008E3008F08E50811103C085E392E040C003
